{"src/contracts/ProofPayEscrow.sol":{"ProofPayEscrow":{"abi":[{"inputs":[{"internalType":"address","name":"_usdcAddress","type":"address"},{"internalType":"address","name":"_feeCollector","type":"address"}],"stateMutability":"nonpayable","type":"constructor"},{"inputs":[{"internalType":"address","name":"owner","type":"address"}],"name":"OwnableInvalidOwner","type":"error"},{"inputs":[{"internalType":"address","name":"account","type":"address"}],"name":"OwnableUnauthorizedAccount","type":"error"},{"inputs":[],"name":"ReentrancyGuardReentrantCall","type":"error"},{"anonymous":false,"inputs":[{"indexed":true,"internalType":"bytes32","name":"escrowId","type":"bytes32"}],"name":"AutoReleaseExecuted","type":"event"},{"anonymous":false,"inputs":[{"indexed":true,"internalType":"bytes32","name":"escrowId","type":"bytes32"},{"indexed":false,"internalType":"address","name":"raisedBy","type":"address"}],"name":"DisputeRaised","type":"event"},{"anonymous":false,"inputs":[{"indexed":true,"internalType":"bytes32","name":"escrowId","type":"bytes32"},{"indexed":false,"internalType":"uint256","name":"buyerAmount","type":"uint256"},{"indexed":false,"internalType":"uint256","name":"sellerAmount","type":"uint256"}],"name":"DisputeResolved","type":"event"},{"anonymous":false,"inputs":[{"indexed":true,"internalType":"bytes32","name":"escrowId","type":"bytes32"},{"indexed":false,"internalType":"uint256","name":"amountToSeller","type":"uint256"},{"indexed":false,"internalType":"uint256","name":"platformFee","type":"uint256"}],"name":"EscrowCompleted","type":"event"},{"anonymous":false,"inputs":[{"indexed":true,"internalType":"bytes32","name":"escrowId","type":"bytes32"},{"indexed":true,"internalType":"address","name":"buyer","type":"address"},{"indexed":true,"internalType":"address","name":"seller","type":"address"},{"indexed":false,"internalType":"uint256","name":"amount","type":"uint256"},{"indexed":false,"internalType":"uint256","name":"autoReleaseTime","type":"uint256"}],"name":"EscrowCreated","type":"event"},{"anonymous":false,"inputs":[{"indexed":true,"internalType":"bytes32","name":"escrowId","type":"bytes32"},{"indexed":false,"internalType":"uint256","name":"amount","type":"uint256"}],"name":"EscrowFunded","type":"event"},{"anonymous":false,"inputs":[{"indexed":true,"internalType":"bytes32","name":"escrowId","type":"bytes32"},{"indexed":false,"internalType":"uint256","name":"amount","type":"uint256"}],"name":"EscrowRefunded","type":"event"},{"anonymous":false,"inputs":[{"indexed":true,"internalType":"address","name":"previousOwner","type":"address"},{"indexed":true,"internalType":"address","name":"newOwner","type":"address"}],"name":"OwnershipTransferred","type":"event"},{"inputs":[],"name":"AUTO_RELEASE_PERIOD","outputs":[{"internalType":"uint256","name":"","type":"uint256"}],"stateMutability":"view","type":"function"},{"inputs":[],"name":"USDC","outputs":[{"internalType":"contract IERC20","name":"","type":"address"}],"stateMutability":"view","type":"function"},{"inputs":[{"internalType":"bytes32","name":"escrowId","type":"bytes32"}],"name":"autoRelease","outputs":[],"stateMutability":"nonpayable","type":"function"},{"inputs":[{"internalType":"address","name":"buyer","type":"address"},{"internalType":"address","name":"seller","type":"address"},{"internalType":"uint256","name":"amount","type":"uint256"}],"name":"createEscrow","outputs":[{"internalType":"bytes32","name":"escrowId","type":"bytes32"}],"stateMutability":"nonpayable","type":"function"},{"inputs":[{"internalType":"bytes32","name":"","type":"bytes32"}],"name":"escrows","outputs":[{"internalType":"address","name":"buyer","type":"address"},{"internalType":"address","name":"seller","type":"address"},{"internalType":"uint256","name":"amount","type":"uint256"},{"internalType":"uint256","name":"createdAt","type":"uint256"},{"internalType":"uint256","name":"autoReleaseTime","type":"uint256"},{"internalType":"enum ProofPayEscrow.EscrowStatus","name":"status","type":"uint8"},{"internalType":"bool","name":"disputeRaised","type":"bool"},{"internalType":"address","name":"disputeRaisedBy","type":"address"}],"stateMutability":"view","type":"function"},{"inputs":[],"name":"feeCollector","outputs":[{"internalType":"address","name":"","type":"address"}],"stateMutability":"view","type":"function"},{"inputs":[{"internalType":"bytes32","name":"escrowId","type":"bytes32"}],"name":"fundEscrow","outputs":[],"stateMutability":"nonpayable","type":"function"},{"inputs":[{"internalType":"bytes32","name":"escrowId","type":"bytes32"}],"name":"getEscrow","outputs":[{"internalType":"address","name":"buyer","type":"address"},{"internalType":"address","name":"seller","type":"address"},{"internalType":"uint256","name":"amount","type":"uint256"},{"internalType":"uint256","name":"createdAt","type":"uint256"},{"internalType":"uint256","name":"autoReleaseTime","type":"uint256"},{"internalType":"enum ProofPayEscrow.EscrowStatus","name":"status","type":"uint8"},{"internalType":"bool","name":"disputeRaised","type":"bool"}],"stateMutability":"view","type":"function"},{"inputs":[],"name":"owner","outputs":[{"internalType":"address","name":"","type":"address"}],"stateMutability":"view","type":"function"},{"inputs":[],"name":"platformFeeBps","outputs":[{"internalType":"uint256","name":"","type":"uint256"}],"stateMutability":"view","type":"function"},{"inputs":[{"internalType":"bytes32","name":"escrowId","type":"bytes32"}],"name":"raiseDispute","outputs":[],"stateMutability":"nonpayable","type":"function"},{"inputs":[{"internalType":"bytes32","name":"escrowId","type":"bytes32"}],"name":"releaseFunds","outputs":[],"stateMutability":"nonpayable","type":"function"},{"inputs":[],"name":"renounceOwnership","outputs":[],"stateMutability":"nonpayable","type":"function"},{"inputs":[{"internalType":"bytes32","name":"escrowId","type":"bytes32"},{"internalType":"uint256","name":"buyerPercentage","type":"uint256"}],"name":"resolveDispute","outputs":[],"stateMutability":"nonpayable","type":"function"},{"inputs":[{"internalType":"address","name":"newOwner","type":"address"}],"name":"transferOwnership","outputs":[],"stateMutability":"nonpayable","type":"function"},{"inputs":[{"internalType":"address","name":"newCollector","type":"address"}],"name":"updateFeeCollector","outputs":[],"stateMutability":"nonpayable","type":"function"},{"inputs":[{"internalType":"uint256","name":"newFeeBps","type":"uint256"}],"name":"updatePlatformFee","outputs":[],"stateMutability":"nonpayable","type":"function"}],"evm":{"bytecode":{"linkReferences":{},"object":"60a060405260326003553480156200001657600080fd5b50604051620019d6380380620019d68339810160408190526200003991620001ba565b600160005533806200006657604051631e4fbdf760e01b8152600060048201526024015b60405180910390fd5b62000071816200014b565b506001600160a01b038216620000ca5760405162461bcd60e51b815260206004820152601460248201527f496e76616c69642055534443206164647265737300000000000000000000000060448201526064016200005d565b6001600160a01b038116620001225760405162461bcd60e51b815260206004820152601560248201527f496e76616c69642066656520636f6c6c6563746f72000000000000000000000060448201526064016200005d565b6001600160a01b03918216608052600480546001600160a01b03191691909216179055620001f2565b600180546001600160a01b038381166001600160a01b0319831681179093556040519116919082907f8be0079c531659141344cd1fd0a4f28419497f9722a3daafe3b4186f6b6457e090600090a35050565b80516001600160a01b0381168114620001b557600080fd5b919050565b60008060408385031215620001ce57600080fd5b620001d9836200019d565b9150620001e9602084016200019d565b90509250929050565b60805161179e62000238600039600081816101dd01528181610543015281816106550152818161073301528181611104015281816112ae015261138c015261179e6000f3fe608060405234801561001057600080fd5b506004361061010b5760003560e01c8063b5f1c3f4116100a2578063d2c35ce811610071578063d2c35ce81461027e578063e14f5b7d14610291578063f023b811146102a4578063f2fde38b146102ca578063f8e65d61146102dd57600080fd5b8063b5f1c3f41461023b578063c361765014610245578063c415b95c14610258578063c92ee0431461026b57600080fd5b8063715018a6116100de578063715018a6146101d057806389a30271146101d85780638da5cb5b14610217578063aa0b59881461022857600080fd5b806322dcd13e146101105780632d83549c1461012c5780635d799698146101a85780636db15b10146101bd575b600080fd5b61011960035481565b6040519081526020015b60405180910390f35b61019461013a36600461150a565b60026020819052600091825260409091208054600182015492820154600383015460048401546005909401546001600160a01b0393841695841694929391929160ff80831692610100810490911691620100009091041688565b60405161012398979695949392919061155b565b6101bb6101b636600461150a565b6102f0565b005b6101bb6101cb3660046115b6565b61042b565b6101bb610841565b6101ff7f000000000000000000000000000000000000000000000000000000000000000081565b6040516001600160a01b039091168152602001610123565b6001546001600160a01b03166101ff565b6101bb61023636600461150a565b610855565b61011962093a8081565b6101196102533660046115f4565b6108a3565b6004546101ff906001600160a01b031681565b6101bb61027936600461150a565b610c09565b6101bb61028c366004611630565b610d0b565b6101bb61029f36600461150a565b610d7d565b6102b76102b236600461150a565b610ee1565b6040516101239796959493929190611652565b6101bb6102d8366004611630565b610fdd565b6101bb6102eb36600461150a565b611018565b6102f8611210565b6000818152600260205260409020600160058083015460ff169081111561032157610321611523565b146103475760405162461bcd60e51b815260040161033e906116a0565b60405180910390fd5b806004015442101561039b5760405162461bcd60e51b815260206004820152601d60248201527f4175746f2d72656c656173652074696d65206e6f742072656163686564000000604482015260640161033e565b6005810154610100900460ff16156103e95760405162461bcd60e51b8152602060048201526011602482015270446973707574652069732061637469766560781b604482015260640161033e565b6103f28261123a565b60405182907f62ed7dd0dcd366b357c186a34706e520aac935b6a6ad234ef86e227f26ab1dc990600090a2506104286001600055565b50565b61043361148b565b61043b611210565b6000828152600260205260409020600360058083015460ff169081111561046457610464611523565b146104a25760405162461bcd60e51b815260206004820152600e60248201526d4e6f7420696e206469737075746560901b604482015260640161033e565b60648211156104e85760405162461bcd60e51b8152602060048201526012602482015271496e76616c69642070657263656e7461676560701b604482015260640161033e565b6002810154600060646104fb85846116e1565b61050591906116fe565b905060006105138284611720565b905081156105f657835460405163a9059cbb60e01b81526001600160a01b039182166004820152602481018490527f00000000000000000000000000000000000000000000000000000000000000009091169063a9059cbb906044016020604051808303816000875af115801561058e573d6000803e3d6000fd5b505050506040513d601f19601f820116820180604052508101906105b29190611733565b6105f65760405162461bcd60e51b8152602060048201526015602482015274109d5e595c881d1c985b9cd9995c8819985a5b1959605a1b604482015260640161033e565b80156107e55760006127106003548361060f91906116e1565b61061991906116fe565b905060006106278284611720565b600187015460405163a9059cbb60e01b81526001600160a01b039182166004820152602481018390529192507f0000000000000000000000000000000000000000000000000000000000000000169063a9059cbb906044016020604051808303816000875af115801561069e573d6000803e3d6000fd5b505050506040513d601f19601f820116820180604052508101906106c29190611733565b6107075760405162461bcd60e51b815260206004820152601660248201527514d95b1b195c881d1c985b9cd9995c8819985a5b195960521b604482015260640161033e565b6004805460405163a9059cbb60e01b81526001600160a01b0391821692810192909252602482018490527f0000000000000000000000000000000000000000000000000000000000000000169063a9059cbb906044016020604051808303816000875af115801561077c573d6000803e3d6000fd5b505050506040513d601f19601f820116820180604052508101906107a09190611733565b6107e25760405162461bcd60e51b8152602060048201526013602482015272119959481d1c985b9cd9995c8819985a5b1959606a1b604482015260640161033e565b50505b60058401805460ff19166002179055604080518381526020810183905287917f58a2558343c2558557b34020fdd42da40f54056195b7744918f27e2e19adcc12910160405180910390a25050505061083d6001600055565b5050565b61084961148b565b61085360006114b8565b565b61085d61148b565b6103e881111561089e5760405162461bcd60e51b815260206004820152600c60248201526b08ccaca40e8dede40d0d2ced60a31b604482015260640161033e565b600355565b60006001600160a01b038416158015906108c557506001600160a01b03831615155b6109055760405162461bcd60e51b8152602060048201526011602482015270496e76616c69642061646472657373657360781b604482015260640161033e565b826001600160a01b0316846001600160a01b0316036109725760405162461bcd60e51b815260206004820152602360248201527f427579657220616e642073656c6c65722063616e6e6f74206265207468652073604482015262616d6560e81b606482015260840161033e565b600082116109c25760405162461bcd60e51b815260206004820152601d60248201527f416d6f756e74206d7573742062652067726561746572207468616e2030000000604482015260640161033e565b6040516bffffffffffffffffffffffff19606086811b8216602084015285901b1660348201526048810183905242606882015243608882015260a80160408051601f198184030181529181528151602092830120600081815260029093529120549091506001600160a01b031615610a745760405162461bcd60e51b8152602060048201526015602482015274457363726f7720616c72656164792065786973747360581b604482015260640161033e565b6000610a8362093a8042611755565b9050604051806101000160405280866001600160a01b03168152602001856001600160a01b0316815260200184815260200142815260200182815260200160006005811115610ad457610ad4611523565b8152600060208083018290526040928301829052858252600280825291839020845181546001600160a01b039182166001600160a01b0319918216178355928601516001838101805492909316919094161790559284015191830191909155606083015160038301556080830151600483015560a0830151600580840180549293909260ff1916918490811115610b6d57610b6d611523565b021790555060c0820151600591909101805460e090930151610100600160b01b03199093166101009215159290920262010000600160b01b03191691909117620100006001600160a01b039384160217905560408051858152602081018490528683169288169185917f8233ac661360194ba2d16fa02d354d092808769225032c46dc5787f33af21cbe910160405180910390a4509392505050565b610c11611210565b6000818152600260205260409020600160058083015460ff1690811115610c3a57610c3a611523565b14610c575760405162461bcd60e51b815260040161033e906116a0565b80546001600160a01b03163314610ca95760405162461bcd60e51b81526020600482015260166024820152754f6e6c792062757965722063616e2072656c6561736560501b604482015260640161033e565b6005810154610100900460ff1615610cf75760405162461bcd60e51b8152602060048201526011602482015270446973707574652069732061637469766560781b604482015260640161033e565b610d008261123a565b506104286001600055565b610d1361148b565b6001600160a01b038116610d5b5760405162461bcd60e51b815260206004820152600f60248201526e496e76616c6964206164647265737360881b604482015260640161033e565b600480546001600160a01b0319166001600160a01b0392909216919091179055565b6000818152600260205260409020600160058083015460ff1690811115610da657610da6611523565b14610dc35760405162461bcd60e51b815260040161033e906116a0565b80546001600160a01b0316331480610de7575060018101546001600160a01b031633145b610e335760405162461bcd60e51b815260206004820181905260248201527f4f6e6c79206275796572206f722073656c6c65722063616e2064697370757465604482015260640161033e565b6005810154610100900460ff1615610e865760405162461bcd60e51b8152602060048201526016602482015275111a5cdc1d5d1948185b1c9958591e481c985a5cd95960521b604482015260640161033e565b6005810180546001600160b01b031916336201000081029190911761010317909155604080519182525183917fa71ec46ab116e07f9703467558af33f82718419b32e2acafa86c65587891e3cc919081900360200190a25050565b600081815260026020818152604080842081516101008101835281546001600160a01b03908116825260018301541693810193909352928301549082015260038201546060820152600482015460808201526005808301548493849384938493849384938493909260a084019160ff90911690811115610f6357610f63611523565b6005811115610f7457610f74611523565b815260059190910154610100810460ff161515602080840191909152620100009091046001600160a01b0316604092830152825190830151918301516060840151608085015160a086015160c090960151939f949e50919c509a50985091965090945092505050565b610fe561148b565b6001600160a01b03811661100f57604051631e4fbdf760e01b81526000600482015260240161033e565b610428816114b8565b611020611210565b60008181526002602052604081209060058083015460ff169081111561104857611048611523565b1461108d5760405162461bcd60e51b8152602060048201526015602482015274496e76616c696420657363726f772073746174757360581b604482015260640161033e565b80546001600160a01b031633146110dc5760405162461bcd60e51b815260206004820152601360248201527213db9b1e48189d5e595c8818d85b88199d5b99606a1b604482015260640161033e565b60028101546040516323b872dd60e01b815233600482015230602482015260448101919091527f00000000000000000000000000000000000000000000000000000000000000006001600160a01b0316906323b872dd906064016020604051808303816000875af1158015611155573d6000803e3d6000fd5b505050506040513d601f19601f820116820180604052508101906111799190611733565b6111bc5760405162461bcd60e51b81526020600482015260146024820152731554d110c81d1c985b9cd9995c8819985a5b195960621b604482015260640161033e565b60058101805460ff19166001179055600281015460405190815282907f08bc5e5162ba9d1a558b2d254f4739d54c8d7051230419652b328670bd68fc379060200160405180910390a2506104286001600055565b60026000540361123357604051633ee5aeb560e01b815260040160405180910390fd5b6002600055565b60008181526002602081905260408220600354918101549092916127109161126291906116e1565b61126c91906116fe565b905060008183600201546112809190611720565b600184015460405163a9059cbb60e01b81526001600160a01b039182166004820152602481018390529192507f0000000000000000000000000000000000000000000000000000000000000000169063a9059cbb906044016020604051808303816000875af11580156112f7573d6000803e3d6000fd5b505050506040513d601f19601f8201168201806040525081019061131b9190611733565b6113605760405162461bcd60e51b815260206004820152601660248201527514d95b1b195c881d1c985b9cd9995c8819985a5b195960521b604482015260640161033e565b6004805460405163a9059cbb60e01b81526001600160a01b0391821692810192909252602482018490527f0000000000000000000000000000000000000000000000000000000000000000169063a9059cbb906044016020604051808303816000875af11580156113d5573d6000803e3d6000fd5b505050506040513d601f19601f820116820180604052508101906113f99190611733565b61143b5760405162461bcd60e51b8152602060048201526013602482015272119959481d1c985b9cd9995c8819985a5b1959606a1b604482015260640161033e565b60058301805460ff19166002179055604080518281526020810184905285917fa7f4b18e7224678e77aca49f9c8e0f034a156b38c7c5914a2ad13b2e088f5a93910160405180910390a250505050565b6001546001600160a01b031633146108535760405163118cdaa760e01b815233600482015260240161033e565b600180546001600160a01b038381166001600160a01b0319831681179093556040519116919082907f8be0079c531659141344cd1fd0a4f28419497f9722a3daafe3b4186f6b6457e090600090a35050565b60006020828403121561151c57600080fd5b5035919050565b634e487b7160e01b600052602160045260246000fd5b6006811061155757634e487b7160e01b600052602160045260246000fd5b9052565b6001600160a01b038981168252888116602083015260408201889052606082018790526080820186905261010082019061159860a0840187611539565b84151560c084015280841660e0840152509998505050505050505050565b600080604083850312156115c957600080fd5b50508035926020909101359150565b80356001600160a01b03811681146115ef57600080fd5b919050565b60008060006060848603121561160957600080fd5b611612846115d8565b9250611620602085016115d8565b9150604084013590509250925092565b60006020828403121561164257600080fd5b61164b826115d8565b9392505050565b6001600160a01b0388811682528716602082015260408101869052606081018590526080810184905260e0810161168c60a0830185611539565b82151560c083015298975050505050505050565b602080825260119082015270115cd8dc9bddc81b9bdd08199d5b991959607a1b604082015260600190565b634e487b7160e01b600052601160045260246000fd5b80820281158282048414176116f8576116f86116cb565b92915050565b60008261171b57634e487b7160e01b600052601260045260246000fd5b500490565b818103818111156116f8576116f86116cb565b60006020828403121561174557600080fd5b8151801515811461164b57600080fd5b808201808211156116f8576116f86116cb56fea2646970667358221220dfc49195c30b88fb14a4a704e1a274485de169c0960b1cbcf9611d74356d80d464736f6c63430008140033","opcodes":"PUSH1 0xA0 PUSH1 0x40 MSTORE PUSH1 0x32 PUSH1 0x3 SSTORE CALLVALUE DUP1 ISZERO PUSH3 0x16 JUMPI PUSH1 0x0 DUP1 REVERT JUMPDEST POP PUSH1 0x40 MLOAD PUSH3 0x19D6 CODESIZE SUB DUP1 PUSH3 0x19D6 DUP4 CODECOPY DUP2 ADD PUSH1 0x40 DUP2 SWAP1 MSTORE PUSH3 0x39 SWAP2 PUSH3 0x1BA JUMP JUMPDEST PUSH1 0x1 PUSH1 0x0 SSTORE CALLER DUP1 PUSH3 0x66 JUMPI PUSH1 0x40 MLOAD PUSH4 0x1E4FBDF7 PUSH1 0xE0 SHL DUP2 MSTORE PUSH1 0x0 PUSH1 0x4 DUP3 ADD MSTORE PUSH1 0x24 ADD JUMPDEST PUSH1 0x40 MLOAD DUP1 SWAP2 SUB SWAP1 REVERT JUMPDEST PUSH3 0x71 DUP2 PUSH3 0x14B JUMP JUMPDEST POP PUSH1 0x1 PUSH1 0x1 PUSH1 0xA0 SHL SUB DUP3 AND PUSH3 0xCA JUMPI PUSH1 0x40 MLOAD PUSH3 0x461BCD PUSH1 0xE5 SHL DUP2 MSTORE PUSH1 0x20 PUSH1 0x4 DUP3 ADD MSTORE PUSH1 0x14 PUSH1 0x24 DUP3 ADD MSTORE PUSH32 0x496E76616C696420555344432061646472657373000000000000000000000000 PUSH1 0x44 DUP3 ADD MSTORE PUSH1 0x64 ADD PUSH3 0x5D JUMP JUMPDEST PUSH1 0x1 PUSH1 0x1 PUSH1 0xA0 SHL SUB DUP2 AND PUSH3 0x122 JUMPI PUSH1 0x40 MLOAD PUSH3 0x461BCD PUSH1 0xE5 SHL DUP2 MSTORE PUSH1 0x20 PUSH1 0x4 DUP3 ADD MSTORE PUSH1 0x15 PUSH1 0x24 DUP3 ADD MSTORE PUSH32 0x496E76616C69642066656520636F6C6C6563746F720000000000000000000000 PUSH1 0x44 DUP3 ADD MSTORE PUSH1 0x64 ADD PUSH3 0x5D JUMP JUMPDEST PUSH1 0x1 PUSH1 0x1 PUSH1 0xA0 SHL SUB SWAP2 DUP3 AND PUSH1 0x80 MSTORE PUSH1 0x4 DUP1 SLOAD PUSH1 0x1 PUSH1 0x1 PUSH1 0xA0 SHL SUB NOT AND SWAP2 SWAP1 SWAP3 AND OR SWAP1 SSTORE PUSH3 0x1F2 JUMP JUMPDEST PUSH1 0x1 DUP1 SLOAD PUSH1 0x1 PUSH1 0x1 PUSH1 0xA0 SHL SUB DUP4 DUP2 AND PUSH1 0x1 PUSH1 0x1 PUSH1 0xA0 SHL SUB NOT DUP4 AND DUP2 OR SWAP1 SWAP4 SSTORE PUSH1 0x40 MLOAD SWAP2 AND SWAP2 SWAP1 DUP3 SWAP1 PUSH32 0x8BE0079C531659141344CD1FD0A4F28419497F9722A3DAAFE3B4186F6B6457E0 SWAP1 PUSH1 0x0 SWAP1 LOG3 POP POP JUMP JUMPDEST DUP1 MLOAD PUSH1 0x1 PUSH1 0x1 PUSH1 0xA0 SHL SUB DUP2 AND DUP2 EQ PUSH3 0x1B5 JUMPI PUSH1 0x0 DUP1 REVERT JUMPDEST SWAP2 SWAP1 POP JUMP JUMPDEST PUSH1 0x0 DUP1 PUSH1 0x40 DUP4 DUP6 SUB SLT ISZERO PUSH3 0x1CE JUMPI PUSH1 0x0 DUP1 REVERT JUMPDEST PUSH3 0x1D9 DUP4 PUSH3 0x19D JUMP JUMPDEST SWAP2 POP PUSH3 0x1E9 PUSH1 0x20 DUP5 ADD PUSH3 0x19D JUMP JUMPDEST SWAP1 POP SWAP3 POP SWAP3 SWAP1 POP JUMP JUMPDEST PUSH1 0x80 MLOAD PUSH2 0x179E PUSH3 0x238 PUSH1 0x0 CODECOPY PUSH1 0x0 DUP2 DUP2 PUSH2 0x1DD ADD MSTORE DUP2 DUP2 PUSH2 0x543 ADD MSTORE DUP2 DUP2 PUSH2 0x655 ADD MSTORE DUP2 DUP2 PUSH2 0x733 ADD MSTORE DUP2 DUP2 PUSH2 0x1104 ADD MSTORE DUP2 DUP2 PUSH2 0x12AE ADD MSTORE PUSH2 0x138C ADD MSTORE PUSH2 0x179E PUSH1 0x0 RETURN INVALID PUSH1 0x80 PUSH1 0x40 MSTORE CALLVALUE DUP1 ISZERO PUSH2 0x10 JUMPI PUSH1 0x0 DUP1 REVERT JUMPDEST POP PUSH1 0x4 CALLDATASIZE LT PUSH2 0x10B JUMPI PUSH1 0x0 CALLDATALOAD PUSH1 0xE0 SHR DUP1 PUSH4 0xB5F1C3F4 GT PUSH2 0xA2 JUMPI DUP1 PUSH4 0xD2C35CE8 GT PUSH2 0x71 JUMPI DUP1 PUSH4 0xD2C35CE8 EQ PUSH2 0x27E JUMPI DUP1 PUSH4 0xE14F5B7D EQ PUSH2 0x291 JUMPI DUP1 PUSH4 0xF023B811 EQ PUSH2 0x2A4 JUMPI DUP1 PUSH4 0xF2FDE38B EQ PUSH2 0x2CA JUMPI DUP1 PUSH4 0xF8E65D61 EQ PUSH2 0x2DD JUMPI PUSH1 0x0 DUP1 REVERT JUMPDEST DUP1 PUSH4 0xB5F1C3F4 EQ PUSH2 0x23B JUMPI DUP1 PUSH4 0xC3617650 EQ PUSH2 0x245 JUMPI DUP1 PUSH4 0xC415B95C EQ PUSH2 0x258 JUMPI DUP1 PUSH4 0xC92EE043 EQ PUSH2 0x26B JUMPI PUSH1 0x0 DUP1 REVERT JUMPDEST DUP1 PUSH4 0x715018A6 GT PUSH2 0xDE JUMPI DUP1 PUSH4 0x715018A6 EQ PUSH2 0x1D0 JUMPI DUP1 PUSH4 0x89A30271 EQ PUSH2 0x1D8 JUMPI DUP1 PUSH4 0x8DA5CB5B EQ PUSH2 0x217 JUMPI DUP1 PUSH4 0xAA0B5988 EQ PUSH2 0x228 JUMPI PUSH1 0x0 DUP1 REVERT JUMPDEST DUP1 PUSH4 0x22DCD13E EQ PUSH2 0x110 JUMPI DUP1 PUSH4 0x2D83549C EQ PUSH2 0x12C JUMPI DUP1 PUSH4 0x5D799698 EQ PUSH2 0x1A8 JUMPI DUP1 PUSH4 0x6DB15B10 EQ PUSH2 0x1BD JUMPI JUMPDEST PUSH1 0x0 DUP1 REVERT JUMPDEST PUSH2 0x119 PUSH1 0x3 SLOAD DUP2 JUMP JUMPDEST PUSH1 0x40 MLOAD SWAP1 DUP2 MSTORE PUSH1 0x20 ADD JUMPDEST PUSH1 0x40 MLOAD DUP1 SWAP2 SUB SWAP1 RETURN JUMPDEST PUSH2 0x194 PUSH2 0x13A CALLDATASIZE PUSH1 0x4 PUSH2 0x150A JUMP JUMPDEST PUSH1 0x2 PUSH1 0x20 DUP2 SWAP1 MSTORE PUSH1 0x0 SWAP2 DUP3 MSTORE PUSH1 0x40 SWAP1 SWAP2 KECCAK256 DUP1 SLOAD PUSH1 0x1 DUP3 ADD SLOAD SWAP3 DUP3 ADD SLOAD PUSH1 0x3 DUP4 ADD SLOAD PUSH1 0x4 DUP5 ADD SLOAD PUSH1 0x5 SWAP1 SWAP5 ADD SLOAD PUSH1 0x1 PUSH1 0x1 PUSH1 0xA0 SHL SUB SWAP4 DUP5 AND SWAP6 DUP5 AND SWAP5 SWAP3 SWAP4 SWAP2 SWAP3 SWAP2 PUSH1 0xFF DUP1 DUP4 AND SWAP3 PUSH2 0x100 DUP2 DIV SWAP1 SWAP2 AND SWAP2 PUSH3 0x10000 SWAP1 SWAP2 DIV AND DUP9 JUMP JUMPDEST PUSH1 0x40 MLOAD PUSH2 0x123 SWAP9 SWAP8 SWAP7 SWAP6 SWAP5 SWAP4 SWAP3 SWAP2 SWAP1 PUSH2 0x155B JUMP JUMPDEST PUSH2 0x1BB PUSH2 0x1B6 CALLDATASIZE PUSH1 0x4 PUSH2 0x150A JUMP JUMPDEST PUSH2 0x2F0 JUMP JUMPDEST STOP JUMPDEST PUSH2 0x1BB PUSH2 0x1CB CALLDATASIZE PUSH1 0x4 PUSH2 0x15B6 JUMP JUMPDEST PUSH2 0x42B JUMP JUMPDEST PUSH2 0x1BB PUSH2 0x841 JUMP JUMPDEST PUSH2 0x1FF PUSH32 0x0 DUP2 JUMP JUMPDEST PUSH1 0x40 MLOAD PUSH1 0x1 PUSH1 0x1 PUSH1 0xA0 SHL SUB SWAP1 SWAP2 AND DUP2 MSTORE PUSH1 0x20 ADD PUSH2 0x123 JUMP JUMPDEST PUSH1 0x1 SLOAD PUSH1 0x1 PUSH1 0x1 PUSH1 0xA0 SHL SUB AND PUSH2 0x1FF JUMP JUMPDEST PUSH2 0x1BB PUSH2 0x236 CALLDATASIZE PUSH1 0x4 PUSH2 0x150A JUMP JUMPDEST PUSH2 0x855 JUMP JUMPDEST PUSH2 0x119 PUSH3 0x93A80 DUP2 JUMP JUMPDEST PUSH2 0x119 PUSH2 0x253 CALLDATASIZE PUSH1 0x4 PUSH2 0x15F4 JUMP JUMPDEST PUSH2 0x8A3 JUMP JUMPDEST PUSH1 0x4 SLOAD PUSH2 0x1FF SWAP1 PUSH1 0x1 PUSH1 0x1 PUSH1 0xA0 SHL SUB AND DUP2 JUMP JUMPDEST PUSH2 0x1BB PUSH2 0x279 CALLDATASIZE PUSH1 0x4 PUSH2 0x150A JUMP JUMPDEST PUSH2 0xC09 JUMP JUMPDEST PUSH2 0x1BB PUSH2 0x28C CALLDATASIZE PUSH1 0x4 PUSH2 0x1630 JUMP JUMPDEST PUSH2 0xD0B JUMP JUMPDEST PUSH2 0x1BB PUSH2 0x29F CALLDATASIZE PUSH1 0x4 PUSH2 0x150A JUMP JUMPDEST PUSH2 0xD7D JUMP JUMPDEST PUSH2 0x2B7 PUSH2 0x2B2 CALLDATASIZE PUSH1 0x4 PUSH2 0x150A JUMP JUMPDEST PUSH2 0xEE1 JUMP JUMPDEST PUSH1 0x40 MLOAD PUSH2 0x123 SWAP8 SWAP7 SWAP6 SWAP5 SWAP4 SWAP3 SWAP2 SWAP1 PUSH2 0x1652 JUMP JUMPDEST PUSH2 0x1BB PUSH2 0x2D8 CALLDATASIZE PUSH1 0x4 PUSH2 0x1630 JUMP JUMPDEST PUSH2 0xFDD JUMP JUMPDEST PUSH2 0x1BB PUSH2 0x2EB CALLDATASIZE PUSH1 0x4 PUSH2 0x150A JUMP JUMPDEST PUSH2 0x1018 JUMP JUMPDEST PUSH2 0x2F8 PUSH2 0x1210 JUMP JUMPDEST PUSH1 0x0 DUP2 DUP2 MSTORE PUSH1 0x2 PUSH1 0x20 MSTORE PUSH1 0x40 SWAP1 KECCAK256 PUSH1 0x1 PUSH1 0x5 DUP1 DUP4 ADD SLOAD PUSH1 0xFF AND SWAP1 DUP2 GT ISZERO PUSH2 0x321 JUMPI PUSH2 0x321 PUSH2 0x1523 JUMP JUMPDEST EQ PUSH2 0x347 JUMPI PUSH1 0x40 MLOAD PUSH3 0x461BCD PUSH1 0xE5 SHL DUP2 MSTORE PUSH1 0x4 ADD PUSH2 0x33E SWAP1 PUSH2 0x16A0 JUMP JUMPDEST PUSH1 0x40 MLOAD DUP1 SWAP2 SUB SWAP1 REVERT JUMPDEST DUP1 PUSH1 0x4 ADD SLOAD TIMESTAMP LT ISZERO PUSH2 0x39B JUMPI PUSH1 0x40 MLOAD PUSH3 0x461BCD PUSH1 0xE5 SHL DUP2 MSTORE PUSH1 0x20 PUSH1 0x4 DUP3 ADD MSTORE PUSH1 0x1D PUSH1 0x24 DUP3 ADD MSTORE PUSH32 0x4175746F2D72656C656173652074696D65206E6F742072656163686564000000 PUSH1 0x44 DUP3 ADD MSTORE PUSH1 0x64 ADD PUSH2 0x33E JUMP JUMPDEST PUSH1 0x5 DUP2 ADD SLOAD PUSH2 0x100 SWAP1 DIV PUSH1 0xFF AND ISZERO PUSH2 0x3E9 JUMPI PUSH1 0x40 MLOAD PUSH3 0x461BCD PUSH1 0xE5 SHL DUP2 MSTORE PUSH1 0x20 PUSH1 0x4 DUP3 ADD MSTORE PUSH1 0x11 PUSH1 0x24 DUP3 ADD MSTORE PUSH17 0x4469737075746520697320616374697665 PUSH1 0x78 SHL PUSH1 0x44 DUP3 ADD MSTORE PUSH1 0x64 ADD PUSH2 0x33E JUMP JUMPDEST PUSH2 0x3F2 DUP3 PUSH2 0x123A JUMP JUMPDEST PUSH1 0x40 MLOAD DUP3 SWAP1 PUSH32 0x62ED7DD0DCD366B357C186A34706E520AAC935B6A6AD234EF86E227F26AB1DC9 SWAP1 PUSH1 0x0 SWAP1 LOG2 POP PUSH2 0x428 PUSH1 0x1 PUSH1 0x0 SSTORE JUMP JUMPDEST POP JUMP JUMPDEST PUSH2 0x433 PUSH2 0x148B JUMP JUMPDEST PUSH2 0x43B PUSH2 0x1210 JUMP JUMPDEST PUSH1 0x0 DUP3 DUP2 MSTORE PUSH1 0x2 PUSH1 0x20 MSTORE PUSH1 0x40 SWAP1 KECCAK256 PUSH1 0x3 PUSH1 0x5 DUP1 DUP4 ADD SLOAD PUSH1 0xFF AND SWAP1 DUP2 GT ISZERO PUSH2 0x464 JUMPI PUSH2 0x464 PUSH2 0x1523 JUMP JUMPDEST EQ PUSH2 0x4A2 JUMPI PUSH1 0x40 MLOAD PUSH3 0x461BCD PUSH1 0xE5 SHL DUP2 MSTORE PUSH1 0x20 PUSH1 0x4 DUP3 ADD MSTORE PUSH1 0xE PUSH1 0x24 DUP3 ADD MSTORE PUSH14 0x4E6F7420696E2064697370757465 PUSH1 0x90 SHL PUSH1 0x44 DUP3 ADD MSTORE PUSH1 0x64 ADD PUSH2 0x33E JUMP JUMPDEST PUSH1 0x64 DUP3 GT ISZERO PUSH2 0x4E8 JUMPI PUSH1 0x40 MLOAD PUSH3 0x461BCD PUSH1 0xE5 SHL DUP2 MSTORE PUSH1 0x20 PUSH1 0x4 DUP3 ADD MSTORE PUSH1 0x12 PUSH1 0x24 DUP3 ADD MSTORE PUSH18 0x496E76616C69642070657263656E74616765 PUSH1 0x70 SHL PUSH1 0x44 DUP3 ADD MSTORE PUSH1 0x64 ADD PUSH2 0x33E JUMP JUMPDEST PUSH1 0x2 DUP2 ADD SLOAD PUSH1 0x0 PUSH1 0x64 PUSH2 0x4FB DUP6 DUP5 PUSH2 0x16E1 JUMP JUMPDEST PUSH2 0x505 SWAP2 SWAP1 PUSH2 0x16FE JUMP JUMPDEST SWAP1 POP PUSH1 0x0 PUSH2 0x513 DUP3 DUP5 PUSH2 0x1720 JUMP JUMPDEST SWAP1 POP DUP2 ISZERO PUSH2 0x5F6 JUMPI DUP4 SLOAD PUSH1 0x40 MLOAD PUSH4 0xA9059CBB PUSH1 0xE0 SHL DUP2 MSTORE PUSH1 0x1 PUSH1 0x1 PUSH1 0xA0 SHL SUB SWAP2 DUP3 AND PUSH1 0x4 DUP3 ADD MSTORE PUSH1 0x24 DUP2 ADD DUP5 SWAP1 MSTORE PUSH32 0x0 SWAP1 SWAP2 AND SWAP1 PUSH4 0xA9059CBB SWAP1 PUSH1 0x44 ADD PUSH1 0x20 PUSH1 0x40 MLOAD DUP1 DUP4 SUB DUP2 PUSH1 0x0 DUP8 GAS CALL ISZERO DUP1 ISZERO PUSH2 0x58E JUMPI RETURNDATASIZE PUSH1 0x0 DUP1 RETURNDATACOPY RETURNDATASIZE PUSH1 0x0 REVERT JUMPDEST POP POP POP POP PUSH1 0x40 MLOAD RETURNDATASIZE PUSH1 0x1F NOT PUSH1 0x1F DUP3 ADD AND DUP3 ADD DUP1 PUSH1 0x40 MSTORE POP DUP2 ADD SWAP1 PUSH2 0x5B2 SWAP2 SWAP1 PUSH2 0x1733 JUMP JUMPDEST PUSH2 0x5F6 JUMPI PUSH1 0x40 MLOAD PUSH3 0x461BCD PUSH1 0xE5 SHL DUP2 MSTORE PUSH1 0x20 PUSH1 0x4 DUP3 ADD MSTORE PUSH1 0x15 PUSH1 0x24 DUP3 ADD MSTORE PUSH21 0x109D5E595C881D1C985B9CD9995C8819985A5B1959 PUSH1 0x5A SHL PUSH1 0x44 DUP3 ADD MSTORE PUSH1 0x64 ADD PUSH2 0x33E JUMP JUMPDEST DUP1 ISZERO PUSH2 0x7E5 JUMPI PUSH1 0x0 PUSH2 0x2710 PUSH1 0x3 SLOAD DUP4 PUSH2 0x60F SWAP2 SWAP1 PUSH2 0x16E1 JUMP JUMPDEST PUSH2 0x619 SWAP2 SWAP1 PUSH2 0x16FE JUMP JUMPDEST SWAP1 POP PUSH1 0x0 PUSH2 0x627 DUP3 DUP5 PUSH2 0x1720 JUMP JUMPDEST PUSH1 0x1 DUP8 ADD SLOAD PUSH1 0x40 MLOAD PUSH4 0xA9059CBB PUSH1 0xE0 SHL DUP2 MSTORE PUSH1 0x1 PUSH1 0x1 PUSH1 0xA0 SHL SUB SWAP2 DUP3 AND PUSH1 0x4 DUP3 ADD MSTORE PUSH1 0x24 DUP2 ADD DUP4 SWAP1 MSTORE SWAP2 SWAP3 POP PUSH32 0x0 AND SWAP1 PUSH4 0xA9059CBB SWAP1 PUSH1 0x44 ADD PUSH1 0x20 PUSH1 0x40 MLOAD DUP1 DUP4 SUB DUP2 PUSH1 0x0 DUP8 GAS CALL ISZERO DUP1 ISZERO PUSH2 0x69E JUMPI RETURNDATASIZE PUSH1 0x0 DUP1 RETURNDATACOPY RETURNDATASIZE PUSH1 0x0 REVERT JUMPDEST POP POP POP POP PUSH1 0x40 MLOAD RETURNDATASIZE PUSH1 0x1F NOT PUSH1 0x1F DUP3 ADD AND DUP3 ADD DUP1 PUSH1 0x40 MSTORE POP DUP2 ADD SWAP1 PUSH2 0x6C2 SWAP2 SWAP1 PUSH2 0x1733 JUMP JUMPDEST PUSH2 0x707 JUMPI PUSH1 0x40 MLOAD PUSH3 0x461BCD PUSH1 0xE5 SHL DUP2 MSTORE PUSH1 0x20 PUSH1 0x4 DUP3 ADD MSTORE PUSH1 0x16 PUSH1 0x24 DUP3 ADD MSTORE PUSH22 0x14D95B1B195C881D1C985B9CD9995C8819985A5B1959 PUSH1 0x52 SHL PUSH1 0x44 DUP3 ADD MSTORE PUSH1 0x64 ADD PUSH2 0x33E JUMP JUMPDEST PUSH1 0x4 DUP1 SLOAD PUSH1 0x40 MLOAD PUSH4 0xA9059CBB PUSH1 0xE0 SHL DUP2 MSTORE PUSH1 0x1 PUSH1 0x1 PUSH1 0xA0 SHL SUB SWAP2 DUP3 AND SWAP3 DUP2 ADD SWAP3 SWAP1 SWAP3 MSTORE PUSH1 0x24 DUP3 ADD DUP5 SWAP1 MSTORE PUSH32 0x0 AND SWAP1 PUSH4 0xA9059CBB SWAP1 PUSH1 0x44 ADD PUSH1 0x20 PUSH1 0x40 MLOAD DUP1 DUP4 SUB DUP2 PUSH1 0x0 DUP8 GAS CALL ISZERO DUP1 ISZERO PUSH2 0x77C JUMPI RETURNDATASIZE PUSH1 0x0 DUP1 RETURNDATACOPY RETURNDATASIZE PUSH1 0x0 REVERT JUMPDEST POP POP POP POP PUSH1 0x40 MLOAD RETURNDATASIZE PUSH1 0x1F NOT PUSH1 0x1F DUP3 ADD AND DUP3 ADD DUP1 PUSH1 0x40 MSTORE POP DUP2 ADD SWAP1 PUSH2 0x7A0 SWAP2 SWAP1 PUSH2 0x1733 JUMP JUMPDEST PUSH2 0x7E2 JUMPI PUSH1 0x40 MLOAD PUSH3 0x461BCD PUSH1 0xE5 SHL DUP2 MSTORE PUSH1 0x20 PUSH1 0x4 DUP3 ADD MSTORE PUSH1 0x13 PUSH1 0x24 DUP3 ADD MSTORE PUSH19 0x119959481D1C985B9CD9995C8819985A5B1959 PUSH1 0x6A SHL PUSH1 0x44 DUP3 ADD MSTORE PUSH1 0x64 ADD PUSH2 0x33E JUMP JUMPDEST POP POP JUMPDEST PUSH1 0x5 DUP5 ADD DUP1 SLOAD PUSH1 0xFF NOT AND PUSH1 0x2 OR SWAP1 SSTORE PUSH1 0x40 DUP1 MLOAD DUP4 DUP2 MSTORE PUSH1 0x20 DUP2 ADD DUP4 SWAP1 MSTORE DUP8 SWAP2 PUSH32 0x58A2558343C2558557B34020FDD42DA40F54056195B7744918F27E2E19ADCC12 SWAP2 ADD PUSH1 0x40 MLOAD DUP1 SWAP2 SUB SWAP1 LOG2 POP POP POP POP PUSH2 0x83D PUSH1 0x1 PUSH1 0x0 SSTORE JUMP JUMPDEST POP POP JUMP JUMPDEST PUSH2 0x849 PUSH2 0x148B JUMP JUMPDEST PUSH2 0x853 PUSH1 0x0 PUSH2 0x14B8 JUMP JUMPDEST JUMP JUMPDEST PUSH2 0x85D PUSH2 0x148B JUMP JUMPDEST PUSH2 0x3E8 DUP2 GT ISZERO PUSH2 0x89E JUMPI PUSH1 0x40 MLOAD PUSH3 0x461BCD PUSH1 0xE5 SHL DUP2 MSTORE PUSH1 0x20 PUSH1 0x4 DUP3 ADD MSTORE PUSH1 0xC PUSH1 0x24 DUP3 ADD MSTORE PUSH12 0x8CCACA40E8DEDE40D0D2CED PUSH1 0xA3 SHL PUSH1 0x44 DUP3 ADD MSTORE PUSH1 0x64 ADD PUSH2 0x33E JUMP JUMPDEST PUSH1 0x3 SSTORE JUMP JUMPDEST PUSH1 0x0 PUSH1 0x1 PUSH1 0x1 PUSH1 0xA0 SHL SUB DUP5 AND ISZERO DUP1 ISZERO SWAP1 PUSH2 0x8C5 JUMPI POP PUSH1 0x1 PUSH1 0x1 PUSH1 0xA0 SHL SUB DUP4 AND ISZERO ISZERO JUMPDEST PUSH2 0x905 JUMPI PUSH1 0x40 MLOAD PUSH3 0x461BCD PUSH1 0xE5 SHL DUP2 MSTORE PUSH1 0x20 PUSH1 0x4 DUP3 ADD MSTORE PUSH1 0x11 PUSH1 0x24 DUP3 ADD MSTORE PUSH17 0x496E76616C696420616464726573736573 PUSH1 0x78 SHL PUSH1 0x44 DUP3 ADD MSTORE PUSH1 0x64 ADD PUSH2 0x33E JUMP JUMPDEST DUP3 PUSH1 0x1 PUSH1 0x1 PUSH1 0xA0 SHL SUB AND DUP5 PUSH1 0x1 PUSH1 0x1 PUSH1 0xA0 SHL SUB AND SUB PUSH2 0x972 JUMPI PUSH1 0x40 MLOAD PUSH3 0x461BCD PUSH1 0xE5 SHL DUP2 MSTORE PUSH1 0x20 PUSH1 0x4 DUP3 ADD MSTORE PUSH1 0x23 PUSH1 0x24 DUP3 ADD MSTORE PUSH32 0x427579657220616E642073656C6C65722063616E6E6F74206265207468652073 PUSH1 0x44 DUP3 ADD MSTORE PUSH3 0x616D65 PUSH1 0xE8 SHL PUSH1 0x64 DUP3 ADD MSTORE PUSH1 0x84 ADD PUSH2 0x33E JUMP JUMPDEST PUSH1 0x0 DUP3 GT PUSH2 0x9C2 JUMPI PUSH1 0x40 MLOAD PUSH3 0x461BCD PUSH1 0xE5 SHL DUP2 MSTORE PUSH1 0x20 PUSH1 0x4 DUP3 ADD MSTORE PUSH1 0x1D PUSH1 0x24 DUP3 ADD MSTORE PUSH32 0x416D6F756E74206D7573742062652067726561746572207468616E2030000000 PUSH1 0x44 DUP3 ADD MSTORE PUSH1 0x64 ADD PUSH2 0x33E JUMP JUMPDEST PUSH1 0x40 MLOAD PUSH12 0xFFFFFFFFFFFFFFFFFFFFFFFF NOT PUSH1 0x60 DUP7 DUP2 SHL DUP3 AND PUSH1 0x20 DUP5 ADD MSTORE DUP6 SWAP1 SHL AND PUSH1 0x34 DUP3 ADD MSTORE PUSH1 0x48 DUP2 ADD DUP4 SWAP1 MSTORE TIMESTAMP PUSH1 0x68 DUP3 ADD MSTORE NUMBER PUSH1 0x88 DUP3 ADD MSTORE PUSH1 0xA8 ADD PUSH1 0x40 DUP1 MLOAD PUSH1 0x1F NOT DUP2 DUP5 SUB ADD DUP2 MSTORE SWAP2 DUP2 MSTORE DUP2 MLOAD PUSH1 0x20 SWAP3 DUP4 ADD KECCAK256 PUSH1 0x0 DUP2 DUP2 MSTORE PUSH1 0x2 SWAP1 SWAP4 MSTORE SWAP2 KECCAK256 SLOAD SWAP1 SWAP2 POP PUSH1 0x1 PUSH1 0x1 PUSH1 0xA0 SHL SUB AND ISZERO PUSH2 0xA74 JUMPI PUSH1 0x40 MLOAD PUSH3 0x461BCD PUSH1 0xE5 SHL DUP2 MSTORE PUSH1 0x20 PUSH1 0x4 DUP3 ADD MSTORE PUSH1 0x15 PUSH1 0x24 DUP3 ADD MSTORE PUSH21 0x457363726F7720616C726561647920657869737473 PUSH1 0x58 SHL PUSH1 0x44 DUP3 ADD MSTORE PUSH1 0x64 ADD PUSH2 0x33E JUMP JUMPDEST PUSH1 0x0 PUSH2 0xA83 PUSH3 0x93A80 TIMESTAMP PUSH2 0x1755 JUMP JUMPDEST SWAP1 POP PUSH1 0x40 MLOAD DUP1 PUSH2 0x100 ADD PUSH1 0x40 MSTORE DUP1 DUP7 PUSH1 0x1 PUSH1 0x1 PUSH1 0xA0 SHL SUB AND DUP2 MSTORE PUSH1 0x20 ADD DUP6 PUSH1 0x1 PUSH1 0x1 PUSH1 0xA0 SHL SUB AND DUP2 MSTORE PUSH1 0x20 ADD DUP5 DUP2 MSTORE PUSH1 0x20 ADD TIMESTAMP DUP2 MSTORE PUSH1 0x20 ADD DUP3 DUP2 MSTORE PUSH1 0x20 ADD PUSH1 0x0 PUSH1 0x5 DUP2 GT ISZERO PUSH2 0xAD4 JUMPI PUSH2 0xAD4 PUSH2 0x1523 JUMP JUMPDEST DUP2 MSTORE PUSH1 0x0 PUSH1 0x20 DUP1 DUP4 ADD DUP3 SWAP1 MSTORE PUSH1 0x40 SWAP3 DUP4 ADD DUP3 SWAP1 MSTORE DUP6 DUP3 MSTORE PUSH1 0x2 DUP1 DUP3 MSTORE SWAP2 DUP4 SWAP1 KECCAK256 DUP5 MLOAD DUP2 SLOAD PUSH1 0x1 PUSH1 0x1 PUSH1 0xA0 SHL SUB SWAP2 DUP3 AND PUSH1 0x1 PUSH1 0x1 PUSH1 0xA0 SHL SUB NOT SWAP2 DUP3 AND OR DUP4 SSTORE SWAP3 DUP7 ADD MLOAD PUSH1 0x1 DUP4 DUP2 ADD DUP1 SLOAD SWAP3 SWAP1 SWAP4 AND SWAP2 SWAP1 SWAP5 AND OR SWAP1 SSTORE SWAP3 DUP5 ADD MLOAD SWAP2 DUP4 ADD SWAP2 SWAP1 SWAP2 SSTORE PUSH1 0x60 DUP4 ADD MLOAD PUSH1 0x3 DUP4 ADD SSTORE PUSH1 0x80 DUP4 ADD MLOAD PUSH1 0x4 DUP4 ADD SSTORE PUSH1 0xA0 DUP4 ADD MLOAD PUSH1 0x5 DUP1 DUP5 ADD DUP1 SLOAD SWAP3 SWAP4 SWAP1 SWAP3 PUSH1 0xFF NOT AND SWAP2 DUP5 SWAP1 DUP2 GT ISZERO PUSH2 0xB6D JUMPI PUSH2 0xB6D PUSH2 0x1523 JUMP JUMPDEST MUL OR SWAP1 SSTORE POP PUSH1 0xC0 DUP3 ADD MLOAD PUSH1 0x5 SWAP2 SWAP1 SWAP2 ADD DUP1 SLOAD PUSH1 0xE0 SWAP1 SWAP4 ADD MLOAD PUSH2 0x100 PUSH1 0x1 PUSH1 0xB0 SHL SUB NOT SWAP1 SWAP4 AND PUSH2 0x100 SWAP3 ISZERO ISZERO SWAP3 SWAP1 SWAP3 MUL PUSH3 0x10000 PUSH1 0x1 PUSH1 0xB0 SHL SUB NOT AND SWAP2 SWAP1 SWAP2 OR PUSH3 0x10000 PUSH1 0x1 PUSH1 0x1 PUSH1 0xA0 SHL SUB SWAP4 DUP5 AND MUL OR SWAP1 SSTORE PUSH1 0x40 DUP1 MLOAD DUP6 DUP2 MSTORE PUSH1 0x20 DUP2 ADD DUP5 SWAP1 MSTORE DUP7 DUP4 AND SWAP3 DUP9 AND SWAP2 DUP6 SWAP2 PUSH32 0x8233AC661360194BA2D16FA02D354D092808769225032C46DC5787F33AF21CBE SWAP2 ADD PUSH1 0x40 MLOAD DUP1 SWAP2 SUB SWAP1 LOG4 POP SWAP4 SWAP3 POP POP POP JUMP JUMPDEST PUSH2 0xC11 PUSH2 0x1210 JUMP JUMPDEST PUSH1 0x0 DUP2 DUP2 MSTORE PUSH1 0x2 PUSH1 0x20 MSTORE PUSH1 0x40 SWAP1 KECCAK256 PUSH1 0x1 PUSH1 0x5 DUP1 DUP4 ADD SLOAD PUSH1 0xFF AND SWAP1 DUP2 GT ISZERO PUSH2 0xC3A JUMPI PUSH2 0xC3A PUSH2 0x1523 JUMP JUMPDEST EQ PUSH2 0xC57 JUMPI PUSH1 0x40 MLOAD PUSH3 0x461BCD PUSH1 0xE5 SHL DUP2 MSTORE PUSH1 0x4 ADD PUSH2 0x33E SWAP1 PUSH2 0x16A0 JUMP JUMPDEST DUP1 SLOAD PUSH1 0x1 PUSH1 0x1 PUSH1 0xA0 SHL SUB AND CALLER EQ PUSH2 0xCA9 JUMPI PUSH1 0x40 MLOAD PUSH3 0x461BCD PUSH1 0xE5 SHL DUP2 MSTORE PUSH1 0x20 PUSH1 0x4 DUP3 ADD MSTORE PUSH1 0x16 PUSH1 0x24 DUP3 ADD MSTORE PUSH22 0x4F6E6C792062757965722063616E2072656C65617365 PUSH1 0x50 SHL PUSH1 0x44 DUP3 ADD MSTORE PUSH1 0x64 ADD PUSH2 0x33E JUMP JUMPDEST PUSH1 0x5 DUP2 ADD SLOAD PUSH2 0x100 SWAP1 DIV PUSH1 0xFF AND ISZERO PUSH2 0xCF7 JUMPI PUSH1 0x40 MLOAD PUSH3 0x461BCD PUSH1 0xE5 SHL DUP2 MSTORE PUSH1 0x20 PUSH1 0x4 DUP3 ADD MSTORE PUSH1 0x11 PUSH1 0x24 DUP3 ADD MSTORE PUSH17 0x4469737075746520697320616374697665 PUSH1 0x78 SHL PUSH1 0x44 DUP3 ADD MSTORE PUSH1 0x64 ADD PUSH2 0x33E JUMP JUMPDEST PUSH2 0xD00 DUP3 PUSH2 0x123A JUMP JUMPDEST POP PUSH2 0x428 PUSH1 0x1 PUSH1 0x0 SSTORE JUMP JUMPDEST PUSH2 0xD13 PUSH2 0x148B JUMP JUMPDEST PUSH1 0x1 PUSH1 0x1 PUSH1 0xA0 SHL SUB DUP2 AND PUSH2 0xD5B JUMPI PUSH1 0x40 MLOAD PUSH3 0x461BCD PUSH1 0xE5 SHL DUP2 MSTORE PUSH1 0x20 PUSH1 0x4 DUP3 ADD MSTORE PUSH1 0xF PUSH1 0x24 DUP3 ADD MSTORE PUSH15 0x496E76616C69642061646472657373 PUSH1 0x88 SHL PUSH1 0x44 DUP3 ADD MSTORE PUSH1 0x64 ADD PUSH2 0x33E JUMP JUMPDEST PUSH1 0x4 DUP1 SLOAD PUSH1 0x1 PUSH1 0x1 PUSH1 0xA0 SHL SUB NOT AND PUSH1 0x1 PUSH1 0x1 PUSH1 0xA0 SHL SUB SWAP3 SWAP1 SWAP3 AND SWAP2 SWAP1 SWAP2 OR SWAP1 SSTORE JUMP JUMPDEST PUSH1 0x0 DUP2 DUP2 MSTORE PUSH1 0x2 PUSH1 0x20 MSTORE PUSH1 0x40 SWAP1 KECCAK256 PUSH1 0x1 PUSH1 0x5 DUP1 DUP4 ADD SLOAD PUSH1 0xFF AND SWAP1 DUP2 GT ISZERO PUSH2 0xDA6 JUMPI PUSH2 0xDA6 PUSH2 0x1523 JUMP JUMPDEST EQ PUSH2 0xDC3 JUMPI PUSH1 0x40 MLOAD PUSH3 0x461BCD PUSH1 0xE5 SHL DUP2 MSTORE PUSH1 0x4 ADD PUSH2 0x33E SWAP1 PUSH2 0x16A0 JUMP JUMPDEST DUP1 SLOAD PUSH1 0x1 PUSH1 0x1 PUSH1 0xA0 SHL SUB AND CALLER EQ DUP1 PUSH2 0xDE7 JUMPI POP PUSH1 0x1 DUP2 ADD SLOAD PUSH1 0x1 PUSH1 0x1 PUSH1 0xA0 SHL SUB AND CALLER EQ JUMPDEST PUSH2 0xE33 JUMPI PUSH1 0x40 MLOAD PUSH3 0x461BCD PUSH1 0xE5 SHL DUP2 MSTORE PUSH1 0x20 PUSH1 0x4 DUP3 ADD DUP2 SWAP1 MSTORE PUSH1 0x24 DUP3 ADD MSTORE PUSH32 0x4F6E6C79206275796572206F722073656C6C65722063616E2064697370757465 PUSH1 0x44 DUP3 ADD MSTORE PUSH1 0x64 ADD PUSH2 0x33E JUMP JUMPDEST PUSH1 0x5 DUP2 ADD SLOAD PUSH2 0x100 SWAP1 DIV PUSH1 0xFF AND ISZERO PUSH2 0xE86 JUMPI PUSH1 0x40 MLOAD PUSH3 0x461BCD PUSH1 0xE5 SHL DUP2 MSTORE PUSH1 0x20 PUSH1 0x4 DUP3 ADD MSTORE PUSH1 0x16 PUSH1 0x24 DUP3 ADD MSTORE PUSH22 0x111A5CDC1D5D1948185B1C9958591E481C985A5CD959 PUSH1 0x52 SHL PUSH1 0x44 DUP3 ADD MSTORE PUSH1 0x64 ADD PUSH2 0x33E JUMP JUMPDEST PUSH1 0x5 DUP2 ADD DUP1 SLOAD PUSH1 0x1 PUSH1 0x1 PUSH1 0xB0 SHL SUB NOT AND CALLER PUSH3 0x10000 DUP2 MUL SWAP2 SWAP1 SWAP2 OR PUSH2 0x103 OR SWAP1 SWAP2 SSTORE PUSH1 0x40 DUP1 MLOAD SWAP2 DUP3 MSTORE MLOAD DUP4 SWAP2 PUSH32 0xA71EC46AB116E07F9703467558AF33F82718419B32E2ACAFA86C65587891E3CC SWAP2 SWAP1 DUP2 SWAP1 SUB PUSH1 0x20 ADD SWAP1 LOG2 POP POP JUMP JUMPDEST PUSH1 0x0 DUP2 DUP2 MSTORE PUSH1 0x2 PUSH1 0x20 DUP2 DUP2 MSTORE PUSH1 0x40 DUP1 DUP5 KECCAK256 DUP2 MLOAD PUSH2 0x100 DUP2 ADD DUP4 MSTORE DUP2 SLOAD PUSH1 0x1 PUSH1 0x1 PUSH1 0xA0 SHL SUB SWAP1 DUP2 AND DUP3 MSTORE PUSH1 0x1 DUP4 ADD SLOAD AND SWAP4 DUP2 ADD SWAP4 SWAP1 SWAP4 MSTORE SWAP3 DUP4 ADD SLOAD SWAP1 DUP3 ADD MSTORE PUSH1 0x3 DUP3 ADD SLOAD PUSH1 0x60 DUP3 ADD MSTORE PUSH1 0x4 DUP3 ADD SLOAD PUSH1 0x80 DUP3 ADD MSTORE PUSH1 0x5 DUP1 DUP4 ADD SLOAD DUP5 SWAP4 DUP5 SWAP4 DUP5 SWAP4 DUP5 SWAP4 DUP5 SWAP4 DUP5 SWAP4 DUP5 SWAP4 SWAP1 SWAP3 PUSH1 0xA0 DUP5 ADD SWAP2 PUSH1 0xFF SWAP1 SWAP2 AND SWAP1 DUP2 GT ISZERO PUSH2 0xF63 JUMPI PUSH2 0xF63 PUSH2 0x1523 JUMP JUMPDEST PUSH1 0x5 DUP2 GT ISZERO PUSH2 0xF74 JUMPI PUSH2 0xF74 PUSH2 0x1523 JUMP JUMPDEST DUP2 MSTORE PUSH1 0x5 SWAP2 SWAP1 SWAP2 ADD SLOAD PUSH2 0x100 DUP2 DIV PUSH1 0xFF AND ISZERO ISZERO PUSH1 0x20 DUP1 DUP5 ADD SWAP2 SWAP1 SWAP2 MSTORE PUSH3 0x10000 SWAP1 SWAP2 DIV PUSH1 0x1 PUSH1 0x1 PUSH1 0xA0 SHL SUB AND PUSH1 0x40 SWAP3 DUP4 ADD MSTORE DUP3 MLOAD SWAP1 DUP4 ADD MLOAD SWAP2 DUP4 ADD MLOAD PUSH1 0x60 DUP5 ADD MLOAD PUSH1 0x80 DUP6 ADD MLOAD PUSH1 0xA0 DUP7 ADD MLOAD PUSH1 0xC0 SWAP1 SWAP7 ADD MLOAD SWAP4 SWAP16 SWAP5 SWAP15 POP SWAP2 SWAP13 POP SWAP11 POP SWAP9 POP SWAP2 SWAP7 POP SWAP1 SWAP5 POP SWAP3 POP POP POP JUMP JUMPDEST PUSH2 0xFE5 PUSH2 0x148B JUMP JUMPDEST PUSH1 0x1 PUSH1 0x1 PUSH1 0xA0 SHL SUB DUP2 AND PUSH2 0x100F JUMPI PUSH1 0x40 MLOAD PUSH4 0x1E4FBDF7 PUSH1 0xE0 SHL DUP2 MSTORE PUSH1 0x0 PUSH1 0x4 DUP3 ADD MSTORE PUSH1 0x24 ADD PUSH2 0x33E JUMP JUMPDEST PUSH2 0x428 DUP2 PUSH2 0x14B8 JUMP JUMPDEST PUSH2 0x1020 PUSH2 0x1210 JUMP JUMPDEST PUSH1 0x0 DUP2 DUP2 MSTORE PUSH1 0x2 PUSH1 0x20 MSTORE PUSH1 0x40 DUP2 KECCAK256 SWAP1 PUSH1 0x5 DUP1 DUP4 ADD SLOAD PUSH1 0xFF AND SWAP1 DUP2 GT ISZERO PUSH2 0x1048 JUMPI PUSH2 0x1048 PUSH2 0x1523 JUMP JUMPDEST EQ PUSH2 0x108D JUMPI PUSH1 0x40 MLOAD PUSH3 0x461BCD PUSH1 0xE5 SHL DUP2 MSTORE PUSH1 0x20 PUSH1 0x4 DUP3 ADD MSTORE PUSH1 0x15 PUSH1 0x24 DUP3 ADD MSTORE PUSH21 0x496E76616C696420657363726F7720737461747573 PUSH1 0x58 SHL PUSH1 0x44 DUP3 ADD MSTORE PUSH1 0x64 ADD PUSH2 0x33E JUMP JUMPDEST DUP1 SLOAD PUSH1 0x1 PUSH1 0x1 PUSH1 0xA0 SHL SUB AND CALLER EQ PUSH2 0x10DC JUMPI PUSH1 0x40 MLOAD PUSH3 0x461BCD PUSH1 0xE5 SHL DUP2 MSTORE PUSH1 0x20 PUSH1 0x4 DUP3 ADD MSTORE PUSH1 0x13 PUSH1 0x24 DUP3 ADD MSTORE PUSH19 0x13DB9B1E48189D5E595C8818D85B88199D5B99 PUSH1 0x6A SHL PUSH1 0x44 DUP3 ADD MSTORE PUSH1 0x64 ADD PUSH2 0x33E JUMP JUMPDEST PUSH1 0x2 DUP2 ADD SLOAD PUSH1 0x40 MLOAD PUSH4 0x23B872DD PUSH1 0xE0 SHL DUP2 MSTORE CALLER PUSH1 0x4 DUP3 ADD MSTORE ADDRESS PUSH1 0x24 DUP3 ADD MSTORE PUSH1 0x44 DUP2 ADD SWAP2 SWAP1 SWAP2 MSTORE PUSH32 0x0 PUSH1 0x1 PUSH1 0x1 PUSH1 0xA0 SHL SUB AND SWAP1 PUSH4 0x23B872DD SWAP1 PUSH1 0x64 ADD PUSH1 0x20 PUSH1 0x40 MLOAD DUP1 DUP4 SUB DUP2 PUSH1 0x0 DUP8 GAS CALL ISZERO DUP1 ISZERO PUSH2 0x1155 JUMPI RETURNDATASIZE PUSH1 0x0 DUP1 RETURNDATACOPY RETURNDATASIZE PUSH1 0x0 REVERT JUMPDEST POP POP POP POP PUSH1 0x40 MLOAD RETURNDATASIZE PUSH1 0x1F NOT PUSH1 0x1F DUP3 ADD AND DUP3 ADD DUP1 PUSH1 0x40 MSTORE POP DUP2 ADD SWAP1 PUSH2 0x1179 SWAP2 SWAP1 PUSH2 0x1733 JUMP JUMPDEST PUSH2 0x11BC JUMPI PUSH1 0x40 MLOAD PUSH3 0x461BCD PUSH1 0xE5 SHL DUP2 MSTORE PUSH1 0x20 PUSH1 0x4 DUP3 ADD MSTORE PUSH1 0x14 PUSH1 0x24 DUP3 ADD MSTORE PUSH20 0x1554D110C81D1C985B9CD9995C8819985A5B1959 PUSH1 0x62 SHL PUSH1 0x44 DUP3 ADD MSTORE PUSH1 0x64 ADD PUSH2 0x33E JUMP JUMPDEST PUSH1 0x5 DUP2 ADD DUP1 SLOAD PUSH1 0xFF NOT AND PUSH1 0x1 OR SWAP1 SSTORE PUSH1 0x2 DUP2 ADD SLOAD PUSH1 0x40 MLOAD SWAP1 DUP2 MSTORE DUP3 SWAP1 PUSH32 0x8BC5E5162BA9D1A558B2D254F4739D54C8D7051230419652B328670BD68FC37 SWAP1 PUSH1 0x20 ADD PUSH1 0x40 MLOAD DUP1 SWAP2 SUB SWAP1 LOG2 POP PUSH2 0x428 PUSH1 0x1 PUSH1 0x0 SSTORE JUMP JUMPDEST PUSH1 0x2 PUSH1 0x0 SLOAD SUB PUSH2 0x1233 JUMPI PUSH1 0x40 MLOAD PUSH4 0x3EE5AEB5 PUSH1 0xE0 SHL DUP2 MSTORE PUSH1 0x4 ADD PUSH1 0x40 MLOAD DUP1 SWAP2 SUB SWAP1 REVERT JUMPDEST PUSH1 0x2 PUSH1 0x0 SSTORE JUMP JUMPDEST PUSH1 0x0 DUP2 DUP2 MSTORE PUSH1 0x2 PUSH1 0x20 DUP2 SWAP1 MSTORE PUSH1 0x40 DUP3 KECCAK256 PUSH1 0x3 SLOAD SWAP2 DUP2 ADD SLOAD SWAP1 SWAP3 SWAP2 PUSH2 0x2710 SWAP2 PUSH2 0x1262 SWAP2 SWAP1 PUSH2 0x16E1 JUMP JUMPDEST PUSH2 0x126C SWAP2 SWAP1 PUSH2 0x16FE JUMP JUMPDEST SWAP1 POP PUSH1 0x0 DUP2 DUP4 PUSH1 0x2 ADD SLOAD PUSH2 0x1280 SWAP2 SWAP1 PUSH2 0x1720 JUMP JUMPDEST PUSH1 0x1 DUP5 ADD SLOAD PUSH1 0x40 MLOAD PUSH4 0xA9059CBB PUSH1 0xE0 SHL DUP2 MSTORE PUSH1 0x1 PUSH1 0x1 PUSH1 0xA0 SHL SUB SWAP2 DUP3 AND PUSH1 0x4 DUP3 ADD MSTORE PUSH1 0x24 DUP2 ADD DUP4 SWAP1 MSTORE SWAP2 SWAP3 POP PUSH32 0x0 AND SWAP1 PUSH4 0xA9059CBB SWAP1 PUSH1 0x44 ADD PUSH1 0x20 PUSH1 0x40 MLOAD DUP1 DUP4 SUB DUP2 PUSH1 0x0 DUP8 GAS CALL ISZERO DUP1 ISZERO PUSH2 0x12F7 JUMPI RETURNDATASIZE PUSH1 0x0 DUP1 RETURNDATACOPY RETURNDATASIZE PUSH1 0x0 REVERT JUMPDEST POP POP POP POP PUSH1 0x40 MLOAD RETURNDATASIZE PUSH1 0x1F NOT PUSH1 0x1F DUP3 ADD AND DUP3 ADD DUP1 PUSH1 0x40 MSTORE POP DUP2 ADD SWAP1 PUSH2 0x131B SWAP2 SWAP1 PUSH2 0x1733 JUMP JUMPDEST PUSH2 0x1360 JUMPI PUSH1 0x40 MLOAD PUSH3 0x461BCD PUSH1 0xE5 SHL DUP2 MSTORE PUSH1 0x20 PUSH1 0x4 DUP3 ADD MSTORE PUSH1 0x16 PUSH1 0x24 DUP3 ADD MSTORE PUSH22 0x14D95B1B195C881D1C985B9CD9995C8819985A5B1959 PUSH1 0x52 SHL PUSH1 0x44 DUP3 ADD MSTORE PUSH1 0x64 ADD PUSH2 0x33E JUMP JUMPDEST PUSH1 0x4 DUP1 SLOAD PUSH1 0x40 MLOAD PUSH4 0xA9059CBB PUSH1 0xE0 SHL DUP2 MSTORE PUSH1 0x1 PUSH1 0x1 PUSH1 0xA0 SHL SUB SWAP2 DUP3 AND SWAP3 DUP2 ADD SWAP3 SWAP1 SWAP3 MSTORE PUSH1 0x24 DUP3 ADD DUP5 SWAP1 MSTORE PUSH32 0x0 AND SWAP1 PUSH4 0xA9059CBB SWAP1 PUSH1 0x44 ADD PUSH1 0x20 PUSH1 0x40 MLOAD DUP1 DUP4 SUB DUP2 PUSH1 0x0 DUP8 GAS CALL ISZERO DUP1 ISZERO PUSH2 0x13D5 JUMPI RETURNDATASIZE PUSH1 0x0 DUP1 RETURNDATACOPY RETURNDATASIZE PUSH1 0x0 REVERT JUMPDEST POP POP POP POP PUSH1 0x40 MLOAD RETURNDATASIZE PUSH1 0x1F NOT PUSH1 0x1F DUP3 ADD AND DUP3 ADD DUP1 PUSH1 0x40 MSTORE POP DUP2 ADD SWAP1 PUSH2 0x13F9 SWAP2 SWAP1 PUSH2 0x1733 JUMP JUMPDEST PUSH2 0x143B JUMPI PUSH1 0x40 MLOAD PUSH3 0x461BCD PUSH1 0xE5 SHL DUP2 MSTORE PUSH1 0x20 PUSH1 0x4 DUP3 ADD MSTORE PUSH1 0x13 PUSH1 0x24 DUP3 ADD MSTORE PUSH19 0x119959481D1C985B9CD9995C8819985A5B1959 PUSH1 0x6A SHL PUSH1 0x44 DUP3 ADD MSTORE PUSH1 0x64 ADD PUSH2 0x33E JUMP JUMPDEST PUSH1 0x5 DUP4 ADD DUP1 SLOAD PUSH1 0xFF NOT AND PUSH1 0x2 OR SWAP1 SSTORE PUSH1 0x40 DUP1 MLOAD DUP3 DUP2 MSTORE PUSH1 0x20 DUP2 ADD DUP5 SWAP1 MSTORE DUP6 SWAP2 PUSH32 0xA7F4B18E7224678E77ACA49F9C8E0F034A156B38C7C5914A2AD13B2E088F5A93 SWAP2 ADD PUSH1 0x40 MLOAD DUP1 SWAP2 SUB SWAP1 LOG2 POP POP POP POP JUMP JUMPDEST PUSH1 0x1 SLOAD PUSH1 0x1 PUSH1 0x1 PUSH1 0xA0 SHL SUB AND CALLER EQ PUSH2 0x853 JUMPI PUSH1 0x40 MLOAD PUSH4 0x118CDAA7 PUSH1 0xE0 SHL DUP2 MSTORE CALLER PUSH1 0x4 DUP3 ADD MSTORE PUSH1 0x24 ADD PUSH2 0x33E JUMP JUMPDEST PUSH1 0x1 DUP1 SLOAD PUSH1 0x1 PUSH1 0x1 PUSH1 0xA0 SHL SUB DUP4 DUP2 AND PUSH1 0x1 PUSH1 0x1 PUSH1 0xA0 SHL SUB NOT DUP4 AND DUP2 OR SWAP1 SWAP4 SSTORE PUSH1 0x40 MLOAD SWAP2 AND SWAP2 SWAP1 DUP3 SWAP1 PUSH32 0x8BE0079C531659141344CD1FD0A4F28419497F9722A3DAAFE3B4186F6B6457E0 SWAP1 PUSH1 0x0 SWAP1 LOG3 POP POP JUMP JUMPDEST PUSH1 0x0 PUSH1 0x20 DUP3 DUP5 SUB SLT ISZERO PUSH2 0x151C JUMPI PUSH1 0x0 DUP1 REVERT JUMPDEST POP CALLDATALOAD SWAP2 SWAP1 POP JUMP JUMPDEST PUSH4 0x4E487B71 PUSH1 0xE0 SHL PUSH1 0x0 MSTORE PUSH1 0x21 PUSH1 0x4 MSTORE PUSH1 0x24 PUSH1 0x0 REVERT JUMPDEST PUSH1 0x6 DUP2 LT PUSH2 0x1557 JUMPI PUSH4 0x4E487B71 PUSH1 0xE0 SHL PUSH1 0x0 MSTORE PUSH1 0x21 PUSH1 0x4 MSTORE PUSH1 0x24 PUSH1 0x0 REVERT JUMPDEST SWAP1 MSTORE JUMP JUMPDEST PUSH1 0x1 PUSH1 0x1 PUSH1 0xA0 SHL SUB DUP10 DUP2 AND DUP3 MSTORE DUP9 DUP2 AND PUSH1 0x20 DUP4 ADD MSTORE PUSH1 0x40 DUP3 ADD DUP9 SWAP1 MSTORE PUSH1 0x60 DUP3 ADD DUP8 SWAP1 MSTORE PUSH1 0x80 DUP3 ADD DUP7 SWAP1 MSTORE PUSH2 0x100 DUP3 ADD SWAP1 PUSH2 0x1598 PUSH1 0xA0 DUP5 ADD DUP8 PUSH2 0x1539 JUMP JUMPDEST DUP5 ISZERO ISZERO PUSH1 0xC0 DUP5 ADD MSTORE DUP1 DUP5 AND PUSH1 0xE0 DUP5 ADD MSTORE POP SWAP10 SWAP9 POP POP POP POP POP POP POP POP POP JUMP JUMPDEST PUSH1 0x0 DUP1 PUSH1 0x40 DUP4 DUP6 SUB SLT ISZERO PUSH2 0x15C9 JUMPI PUSH1 0x0 DUP1 REVERT JUMPDEST POP POP DUP1 CALLDATALOAD SWAP3 PUSH1 0x20 SWAP1 SWAP2 ADD CALLDATALOAD SWAP2 POP JUMP JUMPDEST DUP1 CALLDATALOAD PUSH1 0x1 PUSH1 0x1 PUSH1 0xA0 SHL SUB DUP2 AND DUP2 EQ PUSH2 0x15EF JUMPI PUSH1 0x0 DUP1 REVERT JUMPDEST SWAP2 SWAP1 POP JUMP JUMPDEST PUSH1 0x0 DUP1 PUSH1 0x0 PUSH1 0x60 DUP5 DUP7 SUB SLT ISZERO PUSH2 0x1609 JUMPI PUSH1 0x0 DUP1 REVERT JUMPDEST PUSH2 0x1612 DUP5 PUSH2 0x15D8 JUMP JUMPDEST SWAP3 POP PUSH2 0x1620 PUSH1 0x20 DUP6 ADD PUSH2 0x15D8 JUMP JUMPDEST SWAP2 POP PUSH1 0x40 DUP5 ADD CALLDATALOAD SWAP1 POP SWAP3 POP SWAP3 POP SWAP3 JUMP JUMPDEST PUSH1 0x0 PUSH1 0x20 DUP3 DUP5 SUB SLT ISZERO PUSH2 0x1642 JUMPI PUSH1 0x0 DUP1 REVERT JUMPDEST PUSH2 0x164B DUP3 PUSH2 0x15D8 JUMP JUMPDEST SWAP4 SWAP3 POP POP POP JUMP JUMPDEST PUSH1 0x1 PUSH1 0x1 PUSH1 0xA0 SHL SUB DUP9 DUP2 AND DUP3 MSTORE DUP8 AND PUSH1 0x20 DUP3 ADD MSTORE PUSH1 0x40 DUP2 ADD DUP7 SWAP1 MSTORE PUSH1 0x60 DUP2 ADD DUP6 SWAP1 MSTORE PUSH1 0x80 DUP2 ADD DUP5 SWAP1 MSTORE PUSH1 0xE0 DUP2 ADD PUSH2 0x168C PUSH1 0xA0 DUP4 ADD DUP6 PUSH2 0x1539 JUMP JUMPDEST DUP3 ISZERO ISZERO PUSH1 0xC0 DUP4 ADD MSTORE SWAP9 SWAP8 POP POP POP POP POP POP POP POP JUMP JUMPDEST PUSH1 0x20 DUP1 DUP3 MSTORE PUSH1 0x11 SWAP1 DUP3 ADD MSTORE PUSH17 0x115CD8DC9BDDC81B9BDD08199D5B991959 PUSH1 0x7A SHL PUSH1 0x40 DUP3 ADD MSTORE PUSH1 0x60 ADD SWAP1 JUMP JUMPDEST PUSH4 0x4E487B71 PUSH1 0xE0 SHL PUSH1 0x0 MSTORE PUSH1 0x11 PUSH1 0x4 MSTORE PUSH1 0x24 PUSH1 0x0 REVERT JUMPDEST DUP1 DUP3 MUL DUP2 ISZERO DUP3 DUP3 DIV DUP5 EQ OR PUSH2 0x16F8 JUMPI PUSH2 0x16F8 PUSH2 0x16CB JUMP JUMPDEST SWAP3 SWAP2 POP POP JUMP JUMPDEST PUSH1 0x0 DUP3 PUSH2 0x171B JUMPI PUSH4 0x4E487B71 PUSH1 0xE0 SHL PUSH1 0x0 MSTORE PUSH1 0x12 PUSH1 0x4 MSTORE PUSH1 0x24 PUSH1 0x0 REVERT JUMPDEST POP DIV SWAP1 JUMP JUMPDEST DUP2 DUP2 SUB DUP2 DUP2 GT ISZERO PUSH2 0x16F8 JUMPI PUSH2 0x16F8 PUSH2 0x16CB JUMP JUMPDEST PUSH1 0x0 PUSH1 0x20 DUP3 DUP5 SUB SLT ISZERO PUSH2 0x1745 JUMPI PUSH1 0x0 DUP1 REVERT JUMPDEST DUP2 MLOAD DUP1 ISZERO ISZERO DUP2 EQ PUSH2 0x164B JUMPI PUSH1 0x0 DUP1 REVERT JUMPDEST DUP1 DUP3 ADD DUP1 DUP3 GT ISZERO PUSH2 0x16F8 JUMPI PUSH2 0x16F8 PUSH2 0x16CB JUMP INVALID LOG2 PUSH5 0x6970667358 0x22 SLT KECCAK256 0xDF 0xC4 SWAP2 SWAP6 0xC3 SIGNEXTEND DUP9 0xFB EQ LOG4 0xA7 DIV 0xE1 LOG2 PUSH21 0x485DE169C0960B1CBCF9611D74356D80D464736F6C PUSH4 0x43000814 STOP CALLER "},"methodIdentifiers":{"AUTO_RELEASE_PERIOD()":"b5f1c3f4","USDC()":"89a30271","autoRelease(bytes32)":"5d799698","createEscrow(address,address,uint256)":"c3617650","escrows(bytes32)":"2d83549c","feeCollector()":"c415b95c","fundEscrow(bytes32)":"f8e65d61","getEscrow(bytes32)":"f023b811","owner()":"8da5cb5b","platformFeeBps()":"22dcd13e","raiseDispute(bytes32)":"e14f5b7d","releaseFunds(bytes32)":"c92ee043","renounceOwnership()":"715018a6","resolveDispute(bytes32,uint256)":"6db15b10","transferOwnership(address)":"f2fde38b","updateFeeCollector(address)":"d2c35ce8","updatePlatformFee(uint256)":"aa0b5988"}}}}}