{
  "_format": "hh-sol-artifact-1",
  "contractName": "ProofPayEscrow",
  "sourceName": "src/contracts/ProofPayEscrow.sol",
  "abi": [
    {
      "inputs": [
        {
          "internalType": "address",
          "name": "_usdcAddress",
          "type": "address"
        },
        {
          "internalType": "address",
          "name": "_feeCollector",
          "type": "address"
        }
      ],
      "stateMutability": "nonpayable",
      "type": "constructor"
    },
    {
      "inputs": [
        {
          "internalType": "address",
          "name": "owner",
          "type": "address"
        }
      ],
      "name": "OwnableInvalidOwner",
      "type": "error"
    },
    {
      "inputs": [
        {
          "internalType": "address",
          "name": "account",
          "type": "address"
        }
      ],
      "name": "OwnableUnauthorizedAccount",
      "type": "error"
    },
    {
      "inputs": [],
      "name": "ReentrancyGuardReentrantCall",
      "type": "error"
    },
    {
      "anonymous": false,
      "inputs": [
        {
          "indexed": true,
          "internalType": "bytes32",
          "name": "escrowId",
          "type": "bytes32"
        }
      ],
      "name": "AutoReleaseExecuted",
      "type": "event"
    },
    {
      "anonymous": false,
      "inputs": [
        {
          "indexed": true,
          "internalType": "bytes32",
          "name": "escrowId",
          "type": "bytes32"
        },
        {
          "indexed": false,
          "internalType": "address",
          "name": "raisedBy",
          "type": "address"
        }
      ],
      "name": "DisputeRaised",
      "type": "event"
    },
    {
      "anonymous": false,
      "inputs": [
        {
          "indexed": true,
          "internalType": "bytes32",
          "name": "escrowId",
          "type": "bytes32"
        },
        {
          "indexed": false,
          "internalType": "uint256",
          "name": "buyerAmount",
          "type": "uint256"
        },
        {
          "indexed": false,
          "internalType": "uint256",
          "name": "sellerAmount",
          "type": "uint256"
        }
      ],
      "name": "DisputeResolved",
      "type": "event"
    },
    {
      "anonymous": false,
      "inputs": [
        {
          "indexed": true,
          "internalType": "bytes32",
          "name": "escrowId",
          "type": "bytes32"
        },
        {
          "indexed": false,
          "internalType": "uint256",
          "name": "amountToSeller",
          "type": "uint256"
        },
        {
          "indexed": false,
          "internalType": "uint256",
          "name": "platformFee",
          "type": "uint256"
        }
      ],
      "name": "EscrowCompleted",
      "type": "event"
    },
    {
      "anonymous": false,
      "inputs": [
        {
          "indexed": true,
          "internalType": "bytes32",
          "name": "escrowId",
          "type": "bytes32"
        },
        {
          "indexed": true,
          "internalType": "address",
          "name": "buyer",
          "type": "address"
        },
        {
          "indexed": true,
          "internalType": "address",
          "name": "seller",
          "type": "address"
        },
        {
          "indexed": false,
          "internalType": "uint256",
          "name": "amount",
          "type": "uint256"
        },
        {
          "indexed": false,
          "internalType": "uint256",
          "name": "autoReleaseTime",
          "type": "uint256"
        }
      ],
      "name": "EscrowCreated",
      "type": "event"
    },
    {
      "anonymous": false,
      "inputs": [
        {
          "indexed": true,
          "internalType": "bytes32",
          "name": "escrowId",
          "type": "bytes32"
        },
        {
          "indexed": false,
          "internalType": "uint256",
          "name": "amount",
          "type": "uint256"
        }
      ],
      "name": "EscrowFunded",
      "type": "event"
    },
    {
      "anonymous": false,
      "inputs": [
        {
          "indexed": true,
          "internalType": "bytes32",
          "name": "escrowId",
          "type": "bytes32"
        },
        {
          "indexed": false,
          "internalType": "uint256",
          "name": "amount",
          "type": "uint256"
        }
      ],
      "name": "EscrowRefunded",
      "type": "event"
    },
    {
      "anonymous": false,
      "inputs": [
        {
          "indexed": true,
          "internalType": "address",
          "name": "previousOwner",
          "type": "address"
        },
        {
          "indexed": true,
          "internalType": "address",
          "name": "newOwner",
          "type": "address"
        }
      ],
      "name": "OwnershipTransferred",
      "type": "event"
    },
    {
      "inputs": [],
      "name": "AUTO_RELEASE_PERIOD",
      "outputs": [
        {
          "internalType": "uint256",
          "name": "",
          "type": "uint256"
        }
      ],
      "stateMutability": "view",
      "type": "function"
    },
    {
      "inputs": [],
      "name": "USDC",
      "outputs": [
        {
          "internalType": "contract IERC20",
          "name": "",
          "type": "address"
        }
      ],
      "stateMutability": "view",
      "type": "function"
    },
    {
      "inputs": [
        {
          "internalType": "bytes32",
          "name": "escrowId",
          "type": "bytes32"
        }
      ],
      "name": "autoRelease",
      "outputs": [],
      "stateMutability": "nonpayable",
      "type": "function"
    },
    {
      "inputs": [
        {
          "internalType": "address",
          "name": "buyer",
          "type": "address"
        },
        {
          "internalType": "address",
          "name": "seller",
          "type": "address"
        },
        {
          "internalType": "uint256",
          "name": "amount",
          "type": "uint256"
        }
      ],
      "name": "createEscrow",
      "outputs": [
        {
          "internalType": "bytes32",
          "name": "escrowId",
          "type": "bytes32"
        }
      ],
      "stateMutability": "nonpayable",
      "type": "function"
    },
    {
      "inputs": [
        {
          "internalType": "bytes32",
          "name": "",
          "type": "bytes32"
        }
      ],
      "name": "escrows",
      "outputs": [
        {
          "internalType": "address",
          "name": "buyer",
          "type": "address"
        },
        {
          "internalType": "address",
          "name": "seller",
          "type": "address"
        },
        {
          "internalType": "uint256",
          "name": "amount",
          "type": "uint256"
        },
        {
          "internalType": "uint256",
          "name": "createdAt",
          "type": "uint256"
        },
        {
          "internalType": "uint256",
          "name": "autoReleaseTime",
          "type": "uint256"
        },
        {
          "internalType": "enum ProofPayEscrow.EscrowStatus",
          "name": "status",
          "type": "uint8"
        },
        {
          "internalType": "bool",
          "name": "disputeRaised",
          "type": "bool"
        },
        {
          "internalType": "address",
          "name": "disputeRaisedBy",
          "type": "address"
        }
      ],
      "stateMutability": "view",
      "type": "function"
    },
    {
      "inputs": [],
      "name": "feeCollector",
      "outputs": [
        {
          "internalType": "address",
          "name": "",
          "type": "address"
        }
      ],
      "stateMutability": "view",
      "type": "function"
    },
    {
      "inputs": [
        {
          "internalType": "bytes32",
          "name": "escrowId",
          "type": "bytes32"
        }
      ],
      "name": "fundEscrow",
      "outputs": [],
      "stateMutability": "nonpayable",
      "type": "function"
    },
    {
      "inputs": [
        {
          "internalType": "bytes32",
          "name": "escrowId",
          "type": "bytes32"
        }
      ],
      "name": "getEscrow",
      "outputs": [
        {
          "internalType": "address",
          "name": "buyer",
          "type": "address"
        },
        {
          "internalType": "address",
          "name": "seller",
          "type": "address"
        },
        {
          "internalType": "uint256",
          "name": "amount",
          "type": "uint256"
        },
        {
          "internalType": "uint256",
          "name": "createdAt",
          "type": "uint256"
        },
        {
          "internalType": "uint256",
          "name": "autoReleaseTime",
          "type": "uint256"
        },
        {
          "internalType": "enum ProofPayEscrow.EscrowStatus",
          "name": "status",
          "type": "uint8"
        },
        {
          "internalType": "bool",
          "name": "disputeRaised",
          "type": "bool"
        }
      ],
      "stateMutability": "view",
      "type": "function"
    },
    {
      "inputs": [],
      "name": "owner",
      "outputs": [
        {
          "internalType": "address",
          "name": "",
          "type": "address"
        }
      ],
      "stateMutability": "view",
      "type": "function"
    },
    {
      "inputs": [
        {
          "internalType": "bytes32",
          "name": "escrowId",
          "type": "bytes32"
        }
      ],
      "name": "ownerReleaseFunds",
      "outputs": [],
      "stateMutability": "nonpayable",
      "type": "function"
    },
    {
      "inputs": [],
      "name": "platformFeeBps",
      "outputs": [
        {
          "internalType": "uint256",
          "name": "",
          "type": "uint256"
        }
      ],
      "stateMutability": "view",
      "type": "function"
    },
    {
      "inputs": [
        {
          "internalType": "bytes32",
          "name": "escrowId",
          "type": "bytes32"
        }
      ],
      "name": "raiseDispute",
      "outputs": [],
      "stateMutability": "nonpayable",
      "type": "function"
    },
    {
      "inputs": [
        {
          "internalType": "bytes32",
          "name": "escrowId",
          "type": "bytes32"
        }
      ],
      "name": "releaseFunds",
      "outputs": [],
      "stateMutability": "nonpayable",
      "type": "function"
    },
    {
      "inputs": [],
      "name": "renounceOwnership",
      "outputs": [],
      "stateMutability": "nonpayable",
      "type": "function"
    },
    {
      "inputs": [
        {
          "internalType": "bytes32",
          "name": "escrowId",
          "type": "bytes32"
        },
        {
          "internalType": "uint256",
          "name": "buyerPercentage",
          "type": "uint256"
        }
      ],
      "name": "resolveDispute",
      "outputs": [],
      "stateMutability": "nonpayable",
      "type": "function"
    },
    {
      "inputs": [
        {
          "internalType": "address",
          "name": "newOwner",
          "type": "address"
        }
      ],
      "name": "transferOwnership",
      "outputs": [],
      "stateMutability": "nonpayable",
      "type": "function"
    },
    {
      "inputs": [
        {
          "internalType": "address",
          "name": "newCollector",
          "type": "address"
        }
      ],
      "name": "updateFeeCollector",
      "outputs": [],
      "stateMutability": "nonpayable",
      "type": "function"
    },
    {
      "inputs": [
        {
          "internalType": "uint256",
          "name": "newFeeBps",
          "type": "uint256"
        }
      ],
      "name": "updatePlatformFee",
      "outputs": [],
      "stateMutability": "nonpayable",
      "type": "function"
    }
  ],
  "bytecode": "0x60a060405260326003553480156200001657600080fd5b5060405162001a4a38038062001a4a8339810160408190526200003991620001ba565b600160005533806200006657604051631e4fbdf760e01b8152600060048201526024015b60405180910390fd5b62000071816200014b565b506001600160a01b038216620000ca5760405162461bcd60e51b815260206004820152601460248201527f496e76616c69642055534443206164647265737300000000000000000000000060448201526064016200005d565b6001600160a01b038116620001225760405162461bcd60e51b815260206004820152601560248201527f496e76616c69642066656520636f6c6c6563746f72000000000000000000000060448201526064016200005d565b6001600160a01b03918216608052600480546001600160a01b03191691909216179055620001f2565b600180546001600160a01b038381166001600160a01b0319831681179093556040519116919082907f8be0079c531659141344cd1fd0a4f28419497f9722a3daafe3b4186f6b6457e090600090a35050565b80516001600160a01b0381168114620001b557600080fd5b919050565b60008060408385031215620001ce57600080fd5b620001d9836200019d565b9150620001e9602084016200019d565b90509250929050565b60805161181262000238600039600081816101fb015281816106190152818161072b01528181610809015281816111780152818161134f015261142d01526118126000f3fe608060405234801561001057600080fd5b50600436106101165760003560e01c8063b5f1c3f4116100a2578063d2c35ce811610071578063d2c35ce81461029c578063e14f5b7d146102af578063f023b811146102c2578063f2fde38b146102e8578063f8e65d61146102fb57600080fd5b8063b5f1c3f414610259578063c361765014610263578063c415b95c14610276578063c92ee0431461028957600080fd5b80636db15b10116100e95780636db15b10146101db578063715018a6146101ee57806389a30271146101f65780638da5cb5b14610235578063aa0b59881461024657600080fd5b806322dcd13e1461011b5780632ca42427146101375780632d83549c1461014c5780635d799698146101c8575b600080fd5b61012460035481565b6040519081526020015b60405180910390f35b61014a61014536600461157e565b61030e565b005b6101b461015a36600461157e565b60026020819052600091825260409091208054600182015492820154600383015460048401546005909401546001600160a01b0393841695841694929391929160ff80831692610100810490911691620100009091041688565b60405161012e9897969594939291906115cf565b61014a6101d636600461157e565b6103d2565b61014a6101e936600461162a565b610501565b61014a610917565b61021d7f000000000000000000000000000000000000000000000000000000000000000081565b6040516001600160a01b03909116815260200161012e565b6001546001600160a01b031661021d565b61014a61025436600461157e565b61092b565b61012462093a8081565b610124610271366004611668565b610979565b60045461021d906001600160a01b031681565b61014a61029736600461157e565b610cdf565b61014a6102aa3660046116a4565b610d7f565b61014a6102bd36600461157e565b610df1565b6102d56102d036600461157e565b610f55565b60405161012e97969594939291906116c6565b61014a6102f63660046116a4565b611051565b61014a61030936600461157e565b61108c565b610316611284565b61031e6112b1565b6000818152600260205260409020600160058083015460ff169081111561034757610347611597565b1461036d5760405162461bcd60e51b815260040161036490611714565b60405180910390fd5b6005810154610100900460ff16156103bb5760405162461bcd60e51b8152602060048201526011602482015270446973707574652069732061637469766560781b6044820152606401610364565b6103c4826112db565b506103cf6001600055565b50565b6103da6112b1565b6000818152600260205260409020600160058083015460ff169081111561040357610403611597565b146104205760405162461bcd60e51b815260040161036490611714565b80600401544210156104745760405162461bcd60e51b815260206004820152601d60248201527f4175746f2d72656c656173652074696d65206e6f7420726561636865640000006044820152606401610364565b6005810154610100900460ff16156104c25760405162461bcd60e51b8152602060048201526011602482015270446973707574652069732061637469766560781b6044820152606401610364565b6104cb826112db565b60405182907f62ed7dd0dcd366b357c186a34706e520aac935b6a6ad234ef86e227f26ab1dc990600090a2506103cf6001600055565b610509611284565b6105116112b1565b6000828152600260205260409020600360058083015460ff169081111561053a5761053a611597565b146105785760405162461bcd60e51b815260206004820152600e60248201526d4e6f7420696e206469737075746560901b6044820152606401610364565b60648211156105be5760405162461bcd60e51b8152602060048201526012602482015271496e76616c69642070657263656e7461676560701b6044820152606401610364565b6002810154600060646105d18584611755565b6105db9190611772565b905060006105e98284611794565b905081156106cc57835460405163a9059cbb60e01b81526001600160a01b039182166004820152602481018490527f00000000000000000000000000000000000000000000000000000000000000009091169063a9059cbb906044016020604051808303816000875af1158015610664573d6000803e3d6000fd5b505050506040513d601f19601f8201168201806040525081019061068891906117a7565b6106cc5760405162461bcd60e51b8152602060048201526015602482015274109d5e595c881d1c985b9cd9995c8819985a5b1959605a1b6044820152606401610364565b80156108bb576000612710600354836106e59190611755565b6106ef9190611772565b905060006106fd8284611794565b600187015460405163a9059cbb60e01b81526001600160a01b039182166004820152602481018390529192507f0000000000000000000000000000000000000000000000000000000000000000169063a9059cbb906044016020604051808303816000875af1158015610774573d6000803e3d6000fd5b505050506040513d601f19601f8201168201806040525081019061079891906117a7565b6107dd5760405162461bcd60e51b815260206004820152601660248201527514d95b1b195c881d1c985b9cd9995c8819985a5b195960521b6044820152606401610364565b6004805460405163a9059cbb60e01b81526001600160a01b0391821692810192909252602482018490527f0000000000000000000000000000000000000000000000000000000000000000169063a9059cbb906044016020604051808303816000875af1158015610852573d6000803e3d6000fd5b505050506040513d601f19601f8201168201806040525081019061087691906117a7565b6108b85760405162461bcd60e51b8152602060048201526013602482015272119959481d1c985b9cd9995c8819985a5b1959606a1b6044820152606401610364565b50505b60058401805460ff19166002179055604080518381526020810183905287917f58a2558343c2558557b34020fdd42da40f54056195b7744918f27e2e19adcc12910160405180910390a2505050506109136001600055565b5050565b61091f611284565b610929600061152c565b565b610933611284565b6103e88111156109745760405162461bcd60e51b815260206004820152600c60248201526b08ccaca40e8dede40d0d2ced60a31b6044820152606401610364565b600355565b60006001600160a01b0384161580159061099b57506001600160a01b03831615155b6109db5760405162461bcd60e51b8152602060048201526011602482015270496e76616c69642061646472657373657360781b6044820152606401610364565b826001600160a01b0316846001600160a01b031603610a485760405162461bcd60e51b815260206004820152602360248201527f427579657220616e642073656c6c65722063616e6e6f74206265207468652073604482015262616d6560e81b6064820152608401610364565b60008211610a985760405162461bcd60e51b815260206004820152601d60248201527f416d6f756e74206d7573742062652067726561746572207468616e20300000006044820152606401610364565b6040516bffffffffffffffffffffffff19606086811b8216602084015285901b1660348201526048810183905242606882015243608882015260a80160408051601f198184030181529181528151602092830120600081815260029093529120549091506001600160a01b031615610b4a5760405162461bcd60e51b8152602060048201526015602482015274457363726f7720616c72656164792065786973747360581b6044820152606401610364565b6000610b5962093a80426117c9565b9050604051806101000160405280866001600160a01b03168152602001856001600160a01b0316815260200184815260200142815260200182815260200160006005811115610baa57610baa611597565b8152600060208083018290526040928301829052858252600280825291839020845181546001600160a01b039182166001600160a01b0319918216178355928601516001838101805492909316919094161790559284015191830191909155606083015160038301556080830151600483015560a0830151600580840180549293909260ff1916918490811115610c4357610c43611597565b021790555060c0820151600591909101805460e090930151610100600160b01b03199093166101009215159290920262010000600160b01b03191691909117620100006001600160a01b039384160217905560408051858152602081018490528683169288169185917f8233ac661360194ba2d16fa02d354d092808769225032c46dc5787f33af21cbe910160405180910390a4509392505050565b610ce76112b1565b6000818152600260205260409020600160058083015460ff1690811115610d1057610d10611597565b14610d2d5760405162461bcd60e51b815260040161036490611714565b80546001600160a01b0316331461036d5760405162461bcd60e51b81526020600482015260166024820152754f6e6c792062757965722063616e2072656c6561736560501b6044820152606401610364565b610d87611284565b6001600160a01b038116610dcf5760405162461bcd60e51b815260206004820152600f60248201526e496e76616c6964206164647265737360881b6044820152606401610364565b600480546001600160a01b0319166001600160a01b0392909216919091179055565b6000818152600260205260409020600160058083015460ff1690811115610e1a57610e1a611597565b14610e375760405162461bcd60e51b815260040161036490611714565b80546001600160a01b0316331480610e5b575060018101546001600160a01b031633145b610ea75760405162461bcd60e51b815260206004820181905260248201527f4f6e6c79206275796572206f722073656c6c65722063616e20646973707574656044820152606401610364565b6005810154610100900460ff1615610efa5760405162461bcd60e51b8152602060048201526016602482015275111a5cdc1d5d1948185b1c9958591e481c985a5cd95960521b6044820152606401610364565b6005810180546001600160b01b031916336201000081029190911761010317909155604080519182525183917fa71ec46ab116e07f9703467558af33f82718419b32e2acafa86c65587891e3cc919081900360200190a25050565b600081815260026020818152604080842081516101008101835281546001600160a01b03908116825260018301541693810193909352928301549082015260038201546060820152600482015460808201526005808301548493849384938493849384938493909260a084019160ff90911690811115610fd757610fd7611597565b6005811115610fe857610fe8611597565b815260059190910154610100810460ff161515602080840191909152620100009091046001600160a01b0316604092830152825190830151918301516060840151608085015160a086015160c090960151939f949e50919c509a50985091965090945092505050565b611059611284565b6001600160a01b03811661108357604051631e4fbdf760e01b815260006004820152602401610364565b6103cf8161152c565b6110946112b1565b60008181526002602052604081209060058083015460ff16908111156110bc576110bc611597565b146111015760405162461bcd60e51b8152602060048201526015602482015274496e76616c696420657363726f772073746174757360581b6044820152606401610364565b80546001600160a01b031633146111505760405162461bcd60e51b815260206004820152601360248201527213db9b1e48189d5e595c8818d85b88199d5b99606a1b6044820152606401610364565b60028101546040516323b872dd60e01b815233600482015230602482015260448101919091527f00000000000000000000000000000000000000000000000000000000000000006001600160a01b0316906323b872dd906064016020604051808303816000875af11580156111c9573d6000803e3d6000fd5b505050506040513d601f19601f820116820180604052508101906111ed91906117a7565b6112305760405162461bcd60e51b81526020600482015260146024820152731554d110c81d1c985b9cd9995c8819985a5b195960621b6044820152606401610364565b60058101805460ff19166001179055600281015460405190815282907f08bc5e5162ba9d1a558b2d254f4739d54c8d7051230419652b328670bd68fc379060200160405180910390a2506103cf6001600055565b6001546001600160a01b031633146109295760405163118cdaa760e01b8152336004820152602401610364565b6002600054036112d457604051633ee5aeb560e01b815260040160405180910390fd5b6002600055565b6000818152600260208190526040822060035491810154909291612710916113039190611755565b61130d9190611772565b905060008183600201546113219190611794565b600184015460405163a9059cbb60e01b81526001600160a01b039182166004820152602481018390529192507f0000000000000000000000000000000000000000000000000000000000000000169063a9059cbb906044016020604051808303816000875af1158015611398573d6000803e3d6000fd5b505050506040513d601f19601f820116820180604052508101906113bc91906117a7565b6114015760405162461bcd60e51b815260206004820152601660248201527514d95b1b195c881d1c985b9cd9995c8819985a5b195960521b6044820152606401610364565b6004805460405163a9059cbb60e01b81526001600160a01b0391821692810192909252602482018490527f0000000000000000000000000000000000000000000000000000000000000000169063a9059cbb906044016020604051808303816000875af1158015611476573d6000803e3d6000fd5b505050506040513d601f19601f8201168201806040525081019061149a91906117a7565b6114dc5760405162461bcd60e51b8152602060048201526013602482015272119959481d1c985b9cd9995c8819985a5b1959606a1b6044820152606401610364565b60058301805460ff19166002179055604080518281526020810184905285917fa7f4b18e7224678e77aca49f9c8e0f034a156b38c7c5914a2ad13b2e088f5a93910160405180910390a250505050565b600180546001600160a01b038381166001600160a01b0319831681179093556040519116919082907f8be0079c531659141344cd1fd0a4f28419497f9722a3daafe3b4186f6b6457e090600090a35050565b60006020828403121561159057600080fd5b5035919050565b634e487b7160e01b600052602160045260246000fd5b600681106115cb57634e487b7160e01b600052602160045260246000fd5b9052565b6001600160a01b038981168252888116602083015260408201889052606082018790526080820186905261010082019061160c60a08401876115ad565b84151560c084015280841660e0840152509998505050505050505050565b6000806040838503121561163d57600080fd5b50508035926020909101359150565b80356001600160a01b038116811461166357600080fd5b919050565b60008060006060848603121561167d57600080fd5b6116868461164c565b92506116946020850161164c565b9150604084013590509250925092565b6000602082840312156116b657600080fd5b6116bf8261164c565b9392505050565b6001600160a01b0388811682528716602082015260408101869052606081018590526080810184905260e0810161170060a08301856115ad565b82151560c083015298975050505050505050565b602080825260119082015270115cd8dc9bddc81b9bdd08199d5b991959607a1b604082015260600190565b634e487b7160e01b600052601160045260246000fd5b808202811582820484141761176c5761176c61173f565b92915050565b60008261178f57634e487b7160e01b600052601260045260246000fd5b500490565b8181038181111561176c5761176c61173f565b6000602082840312156117b957600080fd5b815180151581146116bf57600080fd5b8082018082111561176c5761176c61173f56fea2646970667358221220a04f84ae855fd140cda2ad5789ee40346f76c70acc3e66a5847c6398b0867b0664736f6c63430008140033",
  "deployedBytecode": "0x608060405234801561001057600080fd5b506004361061010b5760003560e01c8063b5f1c3f4116100a2578063d2c35ce811610071578063d2c35ce81461027e578063e14f5b7d14610291578063f023b811146102a4578063f2fde38b146102ca578063f8e65d61146102dd57600080fd5b8063b5f1c3f41461023b578063c361765014610245578063c415b95c14610258578063c92ee0431461026b57600080fd5b8063715018a6116100de578063715018a6146101d057806389a30271146101d85780638da5cb5b14610217578063aa0b59881461022857600080fd5b806322dcd13e146101105780632d83549c1461012c5780635d799698146101a85780636db15b10146101bd575b600080fd5b61011960035481565b6040519081526020015b60405180910390f35b61019461013a36600461150a565b60026020819052600091825260409091208054600182015492820154600383015460048401546005909401546001600160a01b0393841695841694929391929160ff80831692610100810490911691620100009091041688565b60405161012398979695949392919061155b565b6101bb6101b636600461150a565b6102f0565b005b6101bb6101cb3660046115b6565b61042b565b6101bb610841565b6101ff7f000000000000000000000000000000000000000000000000000000000000000081565b6040516001600160a01b039091168152602001610123565b6001546001600160a01b03166101ff565b6101bb61023636600461150a565b610855565b61011962093a8081565b6101196102533660046115f4565b6108a3565b6004546101ff906001600160a01b031681565b6101bb61027936600461150a565b610c09565b6101bb61028c366004611630565b610d0b565b6101bb61029f36600461150a565b610d7d565b6102b76102b236600461150a565b610ee1565b6040516101239796959493929190611652565b6101bb6102d8366004611630565b610fdd565b6101bb6102eb36600461150a565b611018565b6102f8611210565b6000818152600260205260409020600160058083015460ff169081111561032157610321611523565b146103475760405162461bcd60e51b8152600401610364906116a0565b60405180910390fd5b806004015442101561039b5760405162461bcd60e51b815260206004820152601d60248201527f4175746f2d72656c656173652074696d65206e6f7420726561636865640000006044820152606401610364565b6005810154610100900460ff16156103e95760405162461bcd60e51b8152602060048201526011602482015270446973707574652069732061637469766560781b6044820152606401610364565b6103f28261123a565b506103cf6001600055565b50565b6103da6112b1565b6000818152600260205260409020600360058083015460ff169081111561040357610403611523565b146104205760405162461bcd60e51b8152600401610364906116a0565b80600401544210156104745760405162461bcd60e51b815260206004820152601d60248201527f4175746f2d72656c656173652074696d65206e6f7420726561636865640000006044820152606401610364565b6005810154610100900460ff16156104c25760405162461bcd60e51b8152602060048201526011602482015270446973707574652069732061637469766560781b6044820152606401610364565b6104cb8261123a565b60405182907f62ed7dd0dcd366b357c186a34706e520aac935b6a6ad234ef86e227f26ab1dc990600090a2506103cf6001600055565b610509611284565b6105116112b1565b6000828152600260205260409020600360058083015460ff169081111561053a5761053a611523565b146105785760405162461bcd60e51b815260206004820152600e60248201526d4e6f7420696e206469737075746560901b6044820152606401610364565b60648211156105be5760405162461bcd60e51b8152602060048201526012602482015271496e76616c69642070657263656e7461676560701b6044820152606401610364565b6002810154600060646105d185846116e1565b6105db91906116fe565b905060006105e98284611720565b905081156106cc57835460405163a9059cbb60e01b81526001600160a01b039182166004820152602481018490527f00000000000000000000000000000000000000000000000000000000000000009091169063a9059cbb906044016020604051808303816000875af1158015610664573d6000803e3d6000fd5b505050506040513d601f19601f820116820180604052508101906106889190611733565b6106cc5760405162461bcd60e51b8152602060048201526015602482015274109d5e595c881d1c985b9cd9995c8819985a5b1959605a1b6044820152606401610364565b80156107e55760006127106003548361060f91906116e1565b61061991906116fe565b905060006106278284611720565b600187015460405163a9059cbb60e01b81526001600160a01b039182166004820152602481018390529192507f0000000000000000000000000000000000000000000000000000000000000000169063a9059cbb906044016020604051808303816000875af115801561069e573d6000803e3d6000fd5b505050506040513d601f19601f820116820180604052508101906106c29190611733565b6107075760405162461bcd60e51b815260206004820152601660248201527514d95b1b195c881d1c985b9cd9995c8819985a5b195960521b6044820152606401610364565b6004805460405163a9059cbb60e01b81526001600160a01b0391821692810192909252602482018490527f0000000000000000000000000000000000000000000000000000000000000000169063a9059cbb906044016020604051808303816000875af115801561077c573d6000803e3d6000fd5b505050506040513d601f19601f820116820180604052508101906107a09190611733565b6107e25760405162461bcd60e51b8152602060048201526013602482015272119959481d1c985b9cd9995c8819985a5b1959606a1b6044820152606401610364565b50505b60058401805460ff19166002179055604080518381526020810183905287917f58a2558343c2558557b34020fdd42da40f54056195b7744918f27e2e19adcc12910160405180910390a25050505061083d6001600055565b5050565b610849611284565b61085360006114b8565b565b61085d611284565b6103e881111561089e5760405162461bcd60e51b815260206004820152600c60248201526b08ccaca40e8dede40d0d2ced60a31b6044820152606401610364565b600355565b60006001600160a01b038416158015906108c557506001600160a01b03831615155b6109055760405162461bcd60e51b8152602060048201526011602482015270496e76616c69642061646472657373657360781b6044820152606401610364565b826001600160a01b0316846001600160a01b0316036109725760405162461bcd60e51b815260206004820152602360248201527f427579657220616e642073656c6c65722063616e6e6f74206265207468652073604482015262616d6560e81b6064820152608401610364565b600082116109c25760405162461bcd60e51b815260206004820152601d60248201527f416d6f756e74206d7573742062652067726561746572207468616e20300000006044820152606401610364565b6040516bffffffffffffffffffffffff19606086811b8216602084015285901b1660348201526048810183905242606882015243608882015260a80160408051601f198184030181529181528151602092830120600081815260029093529120549091506001600160a01b031615610a745760405162461bcd60e51b8152602060048201526015602482015274457363726f7720616c72656164792065786973747360581b6044820152606401610364565b6000610a8362093a80426117c9565b9050604051806101000160405280866001600160a01b03168152602001856001600160a01b0316815260200184815260200142815260200182815260200160006005811115610ad457610ad4611597565b8152600060208083018290526040928301829052858252600280825291839020845181546001600160a01b039182166001600160a01b0319918216178355928601516001838101805492909316919094161790559284015191830191909155606083015160038301556080830151600483015560a0830151600580840180549293909260ff1916918490811115610b6d57610b6d611597565b021790555060c0820151600591909101805460e090930151610100600160b01b03199093166101009215159290920262010000600160b01b03191691909117620100006001600160a01b039384160217905560408051858152602081018490528683169288169185917f8233ac661360194ba2d16fa02d354d092808769225032c46dc5787f33af21cbe910160405180910390a4509392505050565b610ce76112b1565b6000818152600260205260409020600160058083015460ff1690811115610d1057610d10611597565b14610d2d5760405162461bcd60e51b815260040161036490611714565b80546001600160a01b0316331461036d5760405162461bcd60e51b81526020600482015260166024820152754f6e6c792062757965722063616e2072656c6561736560501b6044820152606401610364565b610d87611284565b6001600160a01b038116610dcf5760405162461bcd60e51b815260206004820152600f60248201526e496e76616c6964206164647265737360881b6044820152606401610364565b600480546001600160a01b0319166001600160a01b0392909216919091179055565b6000818152600260205260409020600160058083015460ff1690811115610e1a57610e1a611597565b14610e375760405162461bcd60e51b815260040161036490611714565b80546001600160a01b0316331480610e5b575060018101546001600160a01b031633145b610ea75760405162461bcd60e51b815260206004820181905260248201527f4f6e6c79206275796572206f722073656c6c65722063616e20646973707574656044820152606401610364565b6005810154610100900460ff1615610efa5760405162461bcd60e51b8152602060048201526016602482015275111a5cdc1d5d1948185b1c9958591e481c985a5cd95960521b6044820152606401610364565b6005810180546001600160b01b031916336201000081029190911761010317909155604080519182525183917fa71ec46ab116e07f9703467558af33f82718419b32e2acafa86c65587891e3cc919081900360200190a25050565b600081815260026020818152604080842081516101008101835281546001600160a01b03908116825260018301541693810193909352928301549082015260038201546060820152600482015460808201526005808301548493849384938493849384938493909260a084019160ff90911690811115610fd757610fd7611597565b6005811115610fe857610fe8611597565b815260059190910154610100810460ff161515602080840191909152620100009091046001600160a01b0316604092830152825190830151918301516060840151608085015160a086015160c090960151939f949e50919c509a50985091965090945092505050565b611059611284565b6001600160a01b03811661108357604051631e4fbdf760e01b815260006004820152602401610364565b6103cf8161152c565b6110946112b1565b60008181526002602052604081209060058083015460ff16908111156110bc576110bc611597565b146111015760405162461bcd60e51b8152602060048201526015602482015274496e76616c696420657363726f772073746174757360581b6044820152606401610364565b80546001600160a01b031633146111505760405162461bcd60e51b815260206004820152601360248201527213db9b1e48189d5e595c8818d85b88199d5b99606a1b6044820152606401610364565b60028101546040516323b872dd60e01b815233600482015230602482015260448101919091527f00000000000000000000000000000000000000000000000000000000000000006001600160a01b0316906323b872dd906064016020604051808303816000875af11580156111c9573d6000803e3d6000fd5b505050506040513d601f19601f820116820180604052508101906111ed91906117a7565b6112305760405162461bcd60e51b81526020600482015260146024820152731554d110c81d1c985b9cd9995c8819985a5b195960621b6044820152606401610364565b60058101805460ff19166001179055600281015460405190815282907f08bc5e5162ba9d1a558b2d254f4739d54c8d7051230419652b328670bd68fc379060200160405180910390a2506103cf6001600055565b6001546001600160a01b031633146109295760405163118cdaa760e01b8152336004820152602401610364565b6002600054036112d457604051633ee5aeb560e01b815260040160405180910390fd5b6002600055565b6000818152600260208190526040822060035491810154909291612710916113039190611755565b61130d9190611772565b905060008183600201546113219190611794565b600184015460405163a9059cbb60e01b81526001600160a01b039182166004820152602481018390529192507f0000000000000000000000000000000000000000000000000000000000000000169063a9059cbb906044016020604051808303816000875af1158015611398573d6000803e3d6000fd5b505050506040513d601f19601f820116820180604052508101906113bc91906117a7565b6114015760405162461bcd60e51b815260206004820152601660248201527514d95b1b195c881d1c985b9cd9995c8819985a5b195960521b6044820152606401610364565b6004805460405163a9059cbb60e01b81526001600160a01b0391821692810192909252602482018490527f0000000000000000000000000000000000000000000000000000000000000000169063a9059cbb906044016020604051808303816000875af1158015611476573d6000803e3d6000fd5b505050506040513d601f19601f8201168201806040525081019061149a91906117a7565b6114dc5760405162461bcd60e51b8152602060048201526013602482015272119959481d1c985b9cd9995c8819985a5b1959606a1b6044820152606401610364565b60058301805460ff19166002179055604080518281526020810184905285917fa7f4b18e7224678e77aca49f9c8e0f034a156b38c7c5914a2ad13b2e088f5a93910160405180910390a250505050565b600180546001600160a01b038381166001600160a01b0319831681179093556040519116919082907f8be0079c531659141344cd1fd0a4f28419497f9722a3daafe3b4186f6b6457e090600090a35050565b60006020828403121561159057600080fd5b5035919050565b634e487b7160e01b600052602160045260246000fd5b600681106115cb57634e487b7160e01b600052602160045260246000fd5b9052565b6001600160a01b038981168252888116602083015260408201889052606082018790526080820186905261010082019061160c60a08401876115ad565b84151560c084015280841660e0840152509998505050505050505050565b6000806040838503121561163d57600080fd5b50508035926020909101359150565b80356001600160a01b038116811461166357600080fd5b919050565b60008060006060848603121561167d57600080fd5b6116868461164c565b92506116946020850161164c565b9150604084013590509250925092565b6000602082840312156116b657600080fd5b6116bf8261164c565b9392505050565b6001600160a01b0388811682528716602082015260408101869052606081018590526080810184905260e0810161170060a08301856115ad565b82151560c083015298975050505050505050565b602080825260119082015270115cd8dc9bddc81b9bdd08199d5b991959607a1b604082015260600190565b634e487b7160e01b600052601160045260246000fd5b808202811582820484141761176c5761176c61173f565b92915050565b60008261178f57634e487b7160e01b600052601260045260246000fd5b500490565b8181038181111561176c5761176c61173f565b6000602082840312156117b957600080fd5b815180151581146116bf57600080fd5b8082018082111561176c5761176c61173f56fea2646970667358221220dfc49195c30b88fb14a4a704e1a274485de169c0960b1cbcf9611d74356d80d464736f6c63430008140033",
  "linkReferences": {},
  "deployedLinkReferences": {}
}